{"contracts/CryptoWallet.sol":{"CryptoWallet":{"abi":[{"inputs":[],"stateMutability":"nonpayable","type":"constructor"},{"anonymous":false,"inputs":[{"indexed":false,"internalType":"address","name":"useraddress","type":"address"},{"indexed":false,"internalType":"bool","name":"flag","type":"bool"},{"indexed":false,"internalType":"string","name":"message","type":"string"}],"name":"AlertMsg","type":"event"},{"inputs":[],"name":"AccountBalance","outputs":[{"internalType":"uint256","name":"","type":"uint256"}],"stateMutability":"view","type":"function"},{"inputs":[{"internalType":"address","name":"","type":"address"}],"name":"Customer","outputs":[{"internalType":"string","name":"name","type":"string"},{"internalType":"address","name":"useraddress","type":"address"},{"internalType":"uint256","name":"saving_amount","type":"uint256"}],"stateMutability":"view","type":"function"},{"inputs":[],"name":"DepositeAmount","outputs":[],"stateMutability":"payable","type":"function"},{"inputs":[{"internalType":"address","name":"user","type":"address"}],"name":"GetAccount","outputs":[{"components":[{"internalType":"string","name":"name","type":"string"},{"internalType":"address","name":"useraddress","type":"address"},{"internalType":"uint256","name":"saving_amount","type":"uint256"}],"internalType":"struct User.UserDeatails","name":"acc","type":"tuple"}],"stateMutability":"view","type":"function"},{"inputs":[],"name":"GetContractBalance","outputs":[{"internalType":"uint256","name":"","type":"uint256"}],"stateMutability":"view","type":"function"},{"inputs":[{"internalType":"address","name":"user","type":"address"},{"internalType":"string","name":"name_","type":"string"}],"name":"OpeningAccount","outputs":[],"stateMutability":"payable","type":"function"},{"inputs":[{"internalType":"address","name":"user","type":"address"}],"name":"VisitAccount","outputs":[{"components":[{"internalType":"string","name":"name","type":"string"},{"internalType":"address","name":"useraddress","type":"address"},{"internalType":"uint256","name":"saving_amount","type":"uint256"}],"internalType":"struct User.UserDeatails","name":"myaccount","type":"tuple"}],"stateMutability":"nonpayable","type":"function"},{"inputs":[{"internalType":"uint256","name":"amount","type":"uint256"}],"name":"WithDraw","outputs":[],"stateMutability":"payable","type":"function"},{"inputs":[],"name":"owner","outputs":[{"internalType":"address","name":"","type":"address"}],"stateMutability":"view","type":"function"},{"inputs":[{"internalType":"uint256","name":"","type":"uint256"}],"name":"userarray","outputs":[{"internalType":"address","name":"","type":"address"}],"stateMutability":"view","type":"function"},{"stateMutability":"payable","type":"receive"}],"evm":{"bytecode":{"linkReferences":{},"object":"608060405234801561001057600080fd5b5033600260006101000a81548173ffffffffffffffffffffffffffffffffffffffff021916908373ffffffffffffffffffffffffffffffffffffffff160217905550611ccc806100616000396000f3fe6080604052600436106100955760003560e01c8063a9e0fb9911610059578063a9e0fb991461017d578063b27c51d5146101ba578063cbe159bb146101d6578063d3674148146101f2578063f6d0bf2f1461022f5761009c565b80633894d0b3146100a1578063409d25fd146100e057806370e7733e1461011d57806377c3ef3d146101275780638da5cb5b146101525761009c565b3661009c57005b600080fd5b3480156100ad57600080fd5b506100c860048036038101906100c3919061105e565b61025a565b6040516100d793929190611143565b60405180910390f35b3480156100ec57600080fd5b50610107600480360381019061010291906111ad565b61032c565b60405161011491906111da565b60405180910390f35b61012561036b565b005b34801561013357600080fd5b5061013c61057c565b60405161014991906111f5565b60405180910390f35b34801561015e57600080fd5b5061016761059b565b60405161017491906111da565b60405180910390f35b34801561018957600080fd5b506101a4600480360381019061019f919061105e565b6105c1565b6040516101b191906112c8565b60405180910390f35b6101d460048036038101906101cf919061141f565b6107de565b005b6101f060048036038101906101eb91906111ad565b610ad1565b005b3480156101fe57600080fd5b506102196004803603810190610214919061105e565b610dca565b60405161022691906112c8565b60405180910390f35b34801561023b57600080fd5b50610244610fad565b60405161025191906111f5565b60405180910390f35b600060205280600052604060002060009150905080600001805461027d906114aa565b80601f01602080910402602001604051908101604052809291908181526020018280546102a9906114aa565b80156102f65780601f106102cb576101008083540402835291602001916102f6565b820191906000526020600020905b8154815290600101906020018083116102d957829003601f168201915b5050505050908060010160009054906101000a900473ffffffffffffffffffffffffffffffffffffffff16908060020154905083565b6001818154811061033c57600080fd5b906000526020600020016000915054906101000a900473ffffffffffffffffffffffffffffffffffffffff1681565b600a34101561037957600080fd5b60003073ffffffffffffffffffffffffffffffffffffffff166108fc349081150290604051600060405180830381858888f193505050501580156103c1573d6000803e3d6000fd5b50600034905060005b600180805490506103db919061150a565b81116104ab573373ffffffffffffffffffffffffffffffffffffffff166001828154811061040c5761040b61153e565b5b9060005260206000200160009054906101000a900473ffffffffffffffffffffffffffffffffffffffff1673ffffffffffffffffffffffffffffffffffffffff160361049857600181815481106104665761046561153e565b5b9060005260206000200160009054906101000a900473ffffffffffffffffffffffffffffffffffffffff1692506104ab565b80806104a39061156d565b9150506103ca565b50806000808473ffffffffffffffffffffffffffffffffffffffff1673ffffffffffffffffffffffffffffffffffffffff168152602001908152602001600020600201546104f991906115b5565b6000808473ffffffffffffffffffffffffffffffffffffffff1673ffffffffffffffffffffffffffffffffffffffff168152602001908152602001600020600201819055507f5a59cb1a35b8573e520c29b67d6511660a22e17b023b5cbc7f67b17288b2392c826001604051610570929190611676565b60405180910390a15050565b60003373ffffffffffffffffffffffffffffffffffffffff1631905090565b600260009054906101000a900473ffffffffffffffffffffffffffffffffffffffff1681565b6105c9610fb5565b8173ffffffffffffffffffffffffffffffffffffffff166000808473ffffffffffffffffffffffffffffffffffffffff1673ffffffffffffffffffffffffffffffffffffffff16815260200190815260200160002060010160009054906101000a900473ffffffffffffffffffffffffffffffffffffffff1673ffffffffffffffffffffffffffffffffffffffff161461066257600080fd5b6000808373ffffffffffffffffffffffffffffffffffffffff1673ffffffffffffffffffffffffffffffffffffffff1681526020019081526020016000206040518060600160405290816000820180546106bb906114aa565b80601f01602080910402602001604051908101604052809291908181526020018280546106e7906114aa565b80156107345780601f1061070957610100808354040283529160200191610734565b820191906000526020600020905b81548152906001019060200180831161071757829003601f168201915b505050505081526020016001820160009054906101000a900473ffffffffffffffffffffffffffffffffffffffff1673ffffffffffffffffffffffffffffffffffffffff1673ffffffffffffffffffffffffffffffffffffffff16815260200160028201548152505090507f5a59cb1a35b8573e520c29b67d6511660a22e17b023b5cbc7f67b17288b2392c8260016040516107d1929190611724565b60405180910390a1919050565b3373ffffffffffffffffffffffffffffffffffffffff166000803373ffffffffffffffffffffffffffffffffffffffff1673ffffffffffffffffffffffffffffffffffffffff16815260200190815260200160002060010160009054906101000a900473ffffffffffffffffffffffffffffffffffffffff1673ffffffffffffffffffffffffffffffffffffffff160361087757600080fd5b600a341461088457600080fd5b3073ffffffffffffffffffffffffffffffffffffffff166108fc349081150290604051600060405180830381858888f193505050501580156108ca573d6000803e3d6000fd5b507f5a59cb1a35b8573e520c29b67d6511660a22e17b023b5cbc7f67b17288b2392c3060016040516108fd9291906117d2565b60405180910390a1600034905060405180606001604052808381526020018473ffffffffffffffffffffffffffffffffffffffff168152602001826000808773ffffffffffffffffffffffffffffffffffffffff1673ffffffffffffffffffffffffffffffffffffffff1681526020019081526020016000206002015461098491906115b5565b8152506000808573ffffffffffffffffffffffffffffffffffffffff1673ffffffffffffffffffffffffffffffffffffffff16815260200190815260200160002060008201518160000190816109da91906119ba565b5060208201518160010160006101000a81548173ffffffffffffffffffffffffffffffffffffffff021916908373ffffffffffffffffffffffffffffffffffffffff160217905550604082015181600201559050506001839080600181540180825580915050600190039060005260206000200160009091909190916101000a81548173ffffffffffffffffffffffffffffffffffffffff021916908373ffffffffffffffffffffffffffffffffffffffff1602179055507f5a59cb1a35b8573e520c29b67d6511660a22e17b023b5cbc7f67b17288b2392c836001604051610ac4929190611afe565b60405180910390a1505050565b600080600090505b60018080549050610aea919061150a565b8111610bba573373ffffffffffffffffffffffffffffffffffffffff1660018281548110610b1b57610b1a61153e565b5b9060005260206000200160009054906101000a900473ffffffffffffffffffffffffffffffffffffffff1673ffffffffffffffffffffffffffffffffffffffff1603610ba75760018181548110610b7557610b7461153e565b5b9060005260206000200160009054906101000a900473ffffffffffffffffffffffffffffffffffffffff169150610bba565b8080610bb29061156d565b915050610ad9565b506000808273ffffffffffffffffffffffffffffffffffffffff1673ffffffffffffffffffffffffffffffffffffffff16815260200190815260200160002060020154821115610c0957600080fd5b816000808373ffffffffffffffffffffffffffffffffffffffff1673ffffffffffffffffffffffffffffffffffffffff16815260200190815260200160002060020154610c56919061150a565b6000808373ffffffffffffffffffffffffffffffffffffffff1673ffffffffffffffffffffffffffffffffffffffff1681526020019081526020016000206002018190555047821115610ca857600080fd5b60008247610cb6919061150a565b90503073ffffffffffffffffffffffffffffffffffffffff166108fc829081150290604051600060405180830381858888f19350505050158015610cfe573d6000803e3d6000fd5b507f5a59cb1a35b8573e520c29b67d6511660a22e17b023b5cbc7f67b17288b2392c306001604051610d31929190611bac565b60405180910390a18173ffffffffffffffffffffffffffffffffffffffff166108fc8247610d5f919061150a565b9081150290604051600060405180830381858888f19350505050158015610d8a573d6000803e3d6000fd5b507f5a59cb1a35b8573e520c29b67d6511660a22e17b023b5cbc7f67b17288b2392c826001604051610dbd929190611c5a565b60405180910390a1505050565b610dd2610fb5565b8173ffffffffffffffffffffffffffffffffffffffff166000808473ffffffffffffffffffffffffffffffffffffffff1673ffffffffffffffffffffffffffffffffffffffff16815260200190815260200160002060010160009054906101000a900473ffffffffffffffffffffffffffffffffffffffff1673ffffffffffffffffffffffffffffffffffffffff1614610e6b57600080fd5b6000808373ffffffffffffffffffffffffffffffffffffffff1673ffffffffffffffffffffffffffffffffffffffff168152602001908152602001600020604051806060016040529081600082018054610ec4906114aa565b80601f0160208091040260200160405190810160405280929190818152602001828054610ef0906114aa565b8015610f3d5780601f10610f1257610100808354040283529160200191610f3d565b820191906000526020600020905b815481529060010190602001808311610f2057829003601f168201915b505050505081526020016001820160009054906101000a900473ffffffffffffffffffffffffffffffffffffffff1673ffffffffffffffffffffffffffffffffffffffff1673ffffffffffffffffffffffffffffffffffffffff1681526020016002820154815250509050919050565b600047905090565b604051806060016040528060608152602001600073ffffffffffffffffffffffffffffffffffffffff168152602001600081525090565b6000604051905090565b600080fd5b600080fd5b600073ffffffffffffffffffffffffffffffffffffffff82169050919050565b600061102b82611000565b9050919050565b61103b81611020565b811461104657600080fd5b50565b60008135905061105881611032565b92915050565b60006020828403121561107457611073610ff6565b5b600061108284828501611049565b91505092915050565b600081519050919050565b600082825260208201905092915050565b60005b838110156110c55780820151818401526020810190506110aa565b60008484015250505050565b6000601f19601f8301169050919050565b60006110ed8261108b565b6110f78185611096565b93506111078185602086016110a7565b611110816110d1565b840191505092915050565b61112481611020565b82525050565b6000819050919050565b61113d8161112a565b82525050565b6000606082019050818103600083015261115d81866110e2565b905061116c602083018561111b565b6111796040830184611134565b949350505050565b61118a8161112a565b811461119557600080fd5b50565b6000813590506111a781611181565b92915050565b6000602082840312156111c3576111c2610ff6565b5b60006111d184828501611198565b91505092915050565b60006020820190506111ef600083018461111b565b92915050565b600060208201905061120a6000830184611134565b92915050565b600082825260208201905092915050565b600061122c8261108b565b6112368185611210565b93506112468185602086016110a7565b61124f816110d1565b840191505092915050565b61126381611020565b82525050565b6112728161112a565b82525050565b600060608301600083015184820360008601526112958282611221565b91505060208301516112aa602086018261125a565b5060408301516112bd6040860182611269565b508091505092915050565b600060208201905081810360008301526112e28184611278565b905092915050565b600080fd5b600080fd5b7f4e487b7100000000000000000000000000000000000000000000000000000000600052604160045260246000fd5b61132c826110d1565b810181811067ffffffffffffffff8211171561134b5761134a6112f4565b5b80604052505050565b600061135e610fec565b905061136a8282611323565b919050565b600067ffffffffffffffff82111561138a576113896112f4565b5b611393826110d1565b9050602081019050919050565b82818337600083830152505050565b60006113c26113bd8461136f565b611354565b9050828152602081018484840111156113de576113dd6112ef565b5b6113e98482856113a0565b509392505050565b600082601f830112611406576114056112ea565b5b81356114168482602086016113af565b91505092915050565b6000806040838503121561143657611435610ff6565b5b600061144485828601611049565b925050602083013567ffffffffffffffff81111561146557611464610ffb565b5b611471858286016113f1565b9150509250929050565b7f4e487b7100000000000000000000000000000000000000000000000000000000600052602260045260246000fd5b600060028204905060018216806114c257607f821691505b6020821081036114d5576114d461147b565b5b50919050565b7f4e487b7100000000000000000000000000000000000000000000000000000000600052601160045260246000fd5b60006115158261112a565b91506115208361112a565b9250828203905081811115611538576115376114db565b5b92915050565b7f4e487b7100000000000000000000000000000000000000000000000000000000600052603260045260246000fd5b60006115788261112a565b91507fffffffffffffffffffffffffffffffffffffffffffffffffffffffffffffffff82036115aa576115a96114db565b5b600182019050919050565b60006115c08261112a565b91506115cb8361112a565b92508282019050808211156115e3576115e26114db565b5b92915050565b60008115159050919050565b6115fe816115e9565b82525050565b7f416d6f757420686173206265656e20637265646974656420737563636573736660008201527f756c6c792e2e2e00000000000000000000000000000000000000000000000000602082015250565b6000611660602783611096565b915061166b82611604565b604082019050919050565b600060608201905061168b600083018561111b565b61169860208301846115f5565b81810360408301526116a981611653565b90509392505050565b7f41636f756e7420486173204265656e20666f756e64205375636365737366756c60008201527f6c792e2e2e000000000000000000000000000000000000000000000000000000602082015250565b600061170e602583611096565b9150611719826116b2565b604082019050919050565b6000606082019050611739600083018561111b565b61174660208301846115f5565b818103604083015261175781611701565b90509392505050565b7f596f757220616d6f756e7420686173206265656e206465626974656420746f2060008201527f7468652062616e6b206163636f756e7400000000000000000000000000000000602082015250565b60006117bc603083611096565b91506117c782611760565b604082019050919050565b60006060820190506117e7600083018561111b565b6117f460208301846115f5565b8181036040830152611805816117af565b90509392505050565b60008190508160005260206000209050919050565b60006020601f8301049050919050565b600082821b905092915050565b6000600883026118707fffffffffffffffffffffffffffffffffffffffffffffffffffffffffffffffff82611833565b61187a8683611833565b95508019841693508086168417925050509392505050565b6000819050919050565b60006118b76118b26118ad8461112a565b611892565b61112a565b9050919050565b6000819050919050565b6118d18361189c565b6118e56118dd826118be565b848454611840565b825550505050565b600090565b6118fa6118ed565b6119058184846118c8565b505050565b5b818110156119295761191e6000826118f2565b60018101905061190b565b5050565b601f82111561196e5761193f8161180e565b61194884611823565b81016020851015611957578190505b61196b61196385611823565b83018261190a565b50505b505050565b600082821c905092915050565b600061199160001984600802611973565b1980831691505092915050565b60006119aa8383611980565b9150826002028217905092915050565b6119c38261108b565b67ffffffffffffffff8111156119dc576119db6112f4565b5b6119e682546114aa565b6119f182828561192d565b600060209050601f831160018114611a245760008415611a12578287015190505b611a1c858261199e565b865550611a84565b601f198416611a328661180e565b60005b82811015611a5a57848901518255600182019150602085019450602081019050611a35565b86831015611a775784890151611a73601f891682611980565b8355505b6001600288020188555050505b505050505050565b7f41636f756e7420486173204265656e204372656174656420537563636573736660008201527f756c6c792e2e2e00000000000000000000000000000000000000000000000000602082015250565b6000611ae8602783611096565b9150611af382611a8c565b604082019050919050565b6000606082019050611b13600083018561111b565b611b2060208301846115f5565b8181036040830152611b3181611adb565b90509392505050565b7f416d6f756e7420686173206265656e2064656475637465642066726f6d20746860008201527f6520436f6e74726163742e2e2e00000000000000000000000000000000000000602082015250565b6000611b96602d83611096565b9150611ba182611b3a565b604082019050919050565b6000606082019050611bc1600083018561111b565b611bce60208301846115f5565b8181036040830152611bdf81611b89565b90509392505050565b7f416d6f756e74206861732073756363657366756c6c79206265656e207769746860008201527f647261776c20746f20796f7572206163636f756e742e2e2e0000000000000000602082015250565b6000611c44603883611096565b9150611c4f82611be8565b604082019050919050565b6000606082019050611c6f600083018561111b565b611c7c60208301846115f5565b8181036040830152611c8d81611c37565b9050939250505056fea2646970667358221220c9e8ab54971b0565bbdbe966e316775aa529ec730d07b952f3b1a869bd52dc3b64736f6c63430008110033","opcodes":"PUSH1 0x80 PUSH1 0x40 MSTORE CALLVALUE DUP1 ISZERO PUSH2 0x10 JUMPI PUSH1 0x0 DUP1 REVERT JUMPDEST POP CALLER PUSH1 0x2 PUSH1 0x0 PUSH2 0x100 EXP DUP2 SLOAD DUP2 PUSH20 0xFFFFFFFFFFFFFFFFFFFFFFFFFFFFFFFFFFFFFFFF MUL NOT AND SWAP1 DUP4 PUSH20 0xFFFFFFFFFFFFFFFFFFFFFFFFFFFFFFFFFFFFFFFF AND MUL OR SWAP1 SSTORE POP PUSH2 0x1CCC DUP1 PUSH2 0x61 PUSH1 0x0 CODECOPY PUSH1 0x0 RETURN INVALID PUSH1 0x80 PUSH1 0x40 MSTORE PUSH1 0x4 CALLDATASIZE LT PUSH2 0x95 JUMPI PUSH1 0x0 CALLDATALOAD PUSH1 0xE0 SHR DUP1 PUSH4 0xA9E0FB99 GT PUSH2 0x59 JUMPI DUP1 PUSH4 0xA9E0FB99 EQ PUSH2 0x17D JUMPI DUP1 PUSH4 0xB27C51D5 EQ PUSH2 0x1BA JUMPI DUP1 PUSH4 0xCBE159BB EQ PUSH2 0x1D6 JUMPI DUP1 PUSH4 0xD3674148 EQ PUSH2 0x1F2 JUMPI DUP1 PUSH4 0xF6D0BF2F EQ PUSH2 0x22F JUMPI PUSH2 0x9C JUMP JUMPDEST DUP1 PUSH4 0x3894D0B3 EQ PUSH2 0xA1 JUMPI DUP1 PUSH4 0x409D25FD EQ PUSH2 0xE0 JUMPI DUP1 PUSH4 0x70E7733E EQ PUSH2 0x11D JUMPI DUP1 PUSH4 0x77C3EF3D EQ PUSH2 0x127 JUMPI DUP1 PUSH4 0x8DA5CB5B EQ PUSH2 0x152 JUMPI PUSH2 0x9C JUMP JUMPDEST CALLDATASIZE PUSH2 0x9C JUMPI STOP JUMPDEST PUSH1 0x0 DUP1 REVERT JUMPDEST CALLVALUE DUP1 ISZERO PUSH2 0xAD JUMPI PUSH1 0x0 DUP1 REVERT JUMPDEST POP PUSH2 0xC8 PUSH1 0x4 DUP1 CALLDATASIZE SUB DUP2 ADD SWAP1 PUSH2 0xC3 SWAP2 SWAP1 PUSH2 0x105E JUMP JUMPDEST PUSH2 0x25A JUMP JUMPDEST PUSH1 0x40 MLOAD PUSH2 0xD7 SWAP4 SWAP3 SWAP2 SWAP1 PUSH2 0x1143 JUMP JUMPDEST PUSH1 0x40 MLOAD DUP1 SWAP2 SUB SWAP1 RETURN JUMPDEST CALLVALUE DUP1 ISZERO PUSH2 0xEC JUMPI PUSH1 0x0 DUP1 REVERT JUMPDEST POP PUSH2 0x107 PUSH1 0x4 DUP1 CALLDATASIZE SUB DUP2 ADD SWAP1 PUSH2 0x102 SWAP2 SWAP1 PUSH2 0x11AD JUMP JUMPDEST PUSH2 0x32C JUMP JUMPDEST PUSH1 0x40 MLOAD PUSH2 0x114 SWAP2 SWAP1 PUSH2 0x11DA JUMP JUMPDEST PUSH1 0x40 MLOAD DUP1 SWAP2 SUB SWAP1 RETURN JUMPDEST PUSH2 0x125 PUSH2 0x36B JUMP JUMPDEST STOP JUMPDEST CALLVALUE DUP1 ISZERO PUSH2 0x133 JUMPI PUSH1 0x0 DUP1 REVERT JUMPDEST POP PUSH2 0x13C PUSH2 0x57C JUMP JUMPDEST PUSH1 0x40 MLOAD PUSH2 0x149 SWAP2 SWAP1 PUSH2 0x11F5 JUMP JUMPDEST PUSH1 0x40 MLOAD DUP1 SWAP2 SUB SWAP1 RETURN JUMPDEST CALLVALUE DUP1 ISZERO PUSH2 0x15E JUMPI PUSH1 0x0 DUP1 REVERT JUMPDEST POP PUSH2 0x167 PUSH2 0x59B JUMP JUMPDEST PUSH1 0x40 MLOAD PUSH2 0x174 SWAP2 SWAP1 PUSH2 0x11DA JUMP JUMPDEST PUSH1 0x40 MLOAD DUP1 SWAP2 SUB SWAP1 RETURN JUMPDEST CALLVALUE DUP1 ISZERO PUSH2 0x189 JUMPI PUSH1 0x0 DUP1 REVERT JUMPDEST POP PUSH2 0x1A4 PUSH1 0x4 DUP1 CALLDATASIZE SUB DUP2 ADD SWAP1 PUSH2 0x19F SWAP2 SWAP1 PUSH2 0x105E JUMP JUMPDEST PUSH2 0x5C1 JUMP JUMPDEST PUSH1 0x40 MLOAD PUSH2 0x1B1 SWAP2 SWAP1 PUSH2 0x12C8 JUMP JUMPDEST PUSH1 0x40 MLOAD DUP1 SWAP2 SUB SWAP1 RETURN JUMPDEST PUSH2 0x1D4 PUSH1 0x4 DUP1 CALLDATASIZE SUB DUP2 ADD SWAP1 PUSH2 0x1CF SWAP2 SWAP1 PUSH2 0x141F JUMP JUMPDEST PUSH2 0x7DE JUMP JUMPDEST STOP JUMPDEST PUSH2 0x1F0 PUSH1 0x4 DUP1 CALLDATASIZE SUB DUP2 ADD SWAP1 PUSH2 0x1EB SWAP2 SWAP1 PUSH2 0x11AD JUMP JUMPDEST PUSH2 0xAD1 JUMP JUMPDEST STOP JUMPDEST CALLVALUE DUP1 ISZERO PUSH2 0x1FE JUMPI PUSH1 0x0 DUP1 REVERT JUMPDEST POP PUSH2 0x219 PUSH1 0x4 DUP1 CALLDATASIZE SUB DUP2 ADD SWAP1 PUSH2 0x214 SWAP2 SWAP1 PUSH2 0x105E JUMP JUMPDEST PUSH2 0xDCA JUMP JUMPDEST PUSH1 0x40 MLOAD PUSH2 0x226 SWAP2 SWAP1 PUSH2 0x12C8 JUMP JUMPDEST PUSH1 0x40 MLOAD DUP1 SWAP2 SUB SWAP1 RETURN JUMPDEST CALLVALUE DUP1 ISZERO PUSH2 0x23B JUMPI PUSH1 0x0 DUP1 REVERT JUMPDEST POP PUSH2 0x244 PUSH2 0xFAD JUMP JUMPDEST PUSH1 0x40 MLOAD PUSH2 0x251 SWAP2 SWAP1 PUSH2 0x11F5 JUMP JUMPDEST PUSH1 0x40 MLOAD DUP1 SWAP2 SUB SWAP1 RETURN JUMPDEST PUSH1 0x0 PUSH1 0x20 MSTORE DUP1 PUSH1 0x0 MSTORE PUSH1 0x40 PUSH1 0x0 KECCAK256 PUSH1 0x0 SWAP2 POP SWAP1 POP DUP1 PUSH1 0x0 ADD DUP1 SLOAD PUSH2 0x27D SWAP1 PUSH2 0x14AA JUMP JUMPDEST DUP1 PUSH1 0x1F ADD PUSH1 0x20 DUP1 SWAP2 DIV MUL PUSH1 0x20 ADD PUSH1 0x40 MLOAD SWAP1 DUP2 ADD PUSH1 0x40 MSTORE DUP1 SWAP3 SWAP2 SWAP1 DUP2 DUP2 MSTORE PUSH1 0x20 ADD DUP3 DUP1 SLOAD PUSH2 0x2A9 SWAP1 PUSH2 0x14AA JUMP JUMPDEST DUP1 ISZERO PUSH2 0x2F6 JUMPI DUP1 PUSH1 0x1F LT PUSH2 0x2CB JUMPI PUSH2 0x100 DUP1 DUP4 SLOAD DIV MUL DUP4 MSTORE SWAP2 PUSH1 0x20 ADD SWAP2 PUSH2 0x2F6 JUMP JUMPDEST DUP3 ADD SWAP2 SWAP1 PUSH1 0x0 MSTORE PUSH1 0x20 PUSH1 0x0 KECCAK256 SWAP1 JUMPDEST DUP2 SLOAD DUP2 MSTORE SWAP1 PUSH1 0x1 ADD SWAP1 PUSH1 0x20 ADD DUP1 DUP4 GT PUSH2 0x2D9 JUMPI DUP3 SWAP1 SUB PUSH1 0x1F AND DUP3 ADD SWAP2 JUMPDEST POP POP POP POP POP SWAP1 DUP1 PUSH1 0x1 ADD PUSH1 0x0 SWAP1 SLOAD SWAP1 PUSH2 0x100 EXP SWAP1 DIV PUSH20 0xFFFFFFFFFFFFFFFFFFFFFFFFFFFFFFFFFFFFFFFF AND SWAP1 DUP1 PUSH1 0x2 ADD SLOAD SWAP1 POP DUP4 JUMP JUMPDEST PUSH1 0x1 DUP2 DUP2 SLOAD DUP2 LT PUSH2 0x33C JUMPI PUSH1 0x0 DUP1 REVERT JUMPDEST SWAP1 PUSH1 0x0 MSTORE PUSH1 0x20 PUSH1 0x0 KECCAK256 ADD PUSH1 0x0 SWAP2 POP SLOAD SWAP1 PUSH2 0x100 EXP SWAP1 DIV PUSH20 0xFFFFFFFFFFFFFFFFFFFFFFFFFFFFFFFFFFFFFFFF AND DUP2 JUMP JUMPDEST PUSH1 0xA CALLVALUE LT ISZERO PUSH2 0x379 JUMPI PUSH1 0x0 DUP1 REVERT JUMPDEST PUSH1 0x0 ADDRESS PUSH20 0xFFFFFFFFFFFFFFFFFFFFFFFFFFFFFFFFFFFFFFFF AND PUSH2 0x8FC CALLVALUE SWAP1 DUP2 ISZERO MUL SWAP1 PUSH1 0x40 MLOAD PUSH1 0x0 PUSH1 0x40 MLOAD DUP1 DUP4 SUB DUP2 DUP6 DUP9 DUP9 CALL SWAP4 POP POP POP POP ISZERO DUP1 ISZERO PUSH2 0x3C1 JUMPI RETURNDATASIZE PUSH1 0x0 DUP1 RETURNDATACOPY RETURNDATASIZE PUSH1 0x0 REVERT JUMPDEST POP PUSH1 0x0 CALLVALUE SWAP1 POP PUSH1 0x0 JUMPDEST PUSH1 0x1 DUP1 DUP1 SLOAD SWAP1 POP PUSH2 0x3DB SWAP2 SWAP1 PUSH2 0x150A JUMP JUMPDEST DUP2 GT PUSH2 0x4AB JUMPI CALLER PUSH20 0xFFFFFFFFFFFFFFFFFFFFFFFFFFFFFFFFFFFFFFFF AND PUSH1 0x1 DUP3 DUP2 SLOAD DUP2 LT PUSH2 0x40C JUMPI PUSH2 0x40B PUSH2 0x153E JUMP JUMPDEST JUMPDEST SWAP1 PUSH1 0x0 MSTORE PUSH1 0x20 PUSH1 0x0 KECCAK256 ADD PUSH1 0x0 SWAP1 SLOAD SWAP1 PUSH2 0x100 EXP SWAP1 DIV PUSH20 0xFFFFFFFFFFFFFFFFFFFFFFFFFFFFFFFFFFFFFFFF AND PUSH20 0xFFFFFFFFFFFFFFFFFFFFFFFFFFFFFFFFFFFFFFFF AND SUB PUSH2 0x498 JUMPI PUSH1 0x1 DUP2 DUP2 SLOAD DUP2 LT PUSH2 0x466 JUMPI PUSH2 0x465 PUSH2 0x153E JUMP JUMPDEST JUMPDEST SWAP1 PUSH1 0x0 MSTORE PUSH1 0x20 PUSH1 0x0 KECCAK256 ADD PUSH1 0x0 SWAP1 SLOAD SWAP1 PUSH2 0x100 EXP SWAP1 DIV PUSH20 0xFFFFFFFFFFFFFFFFFFFFFFFFFFFFFFFFFFFFFFFF AND SWAP3 POP PUSH2 0x4AB JUMP JUMPDEST DUP1 DUP1 PUSH2 0x4A3 SWAP1 PUSH2 0x156D JUMP JUMPDEST SWAP2 POP POP PUSH2 0x3CA JUMP JUMPDEST POP DUP1 PUSH1 0x0 DUP1 DUP5 PUSH20 0xFFFFFFFFFFFFFFFFFFFFFFFFFFFFFFFFFFFFFFFF AND PUSH20 0xFFFFFFFFFFFFFFFFFFFFFFFFFFFFFFFFFFFFFFFF AND DUP2 MSTORE PUSH1 0x20 ADD SWAP1 DUP2 MSTORE PUSH1 0x20 ADD PUSH1 0x0 KECCAK256 PUSH1 0x2 ADD SLOAD PUSH2 0x4F9 SWAP2 SWAP1 PUSH2 0x15B5 JUMP JUMPDEST PUSH1 0x0 DUP1 DUP5 PUSH20 0xFFFFFFFFFFFFFFFFFFFFFFFFFFFFFFFFFFFFFFFF AND PUSH20 0xFFFFFFFFFFFFFFFFFFFFFFFFFFFFFFFFFFFFFFFF AND DUP2 MSTORE PUSH1 0x20 ADD SWAP1 DUP2 MSTORE PUSH1 0x20 ADD PUSH1 0x0 KECCAK256 PUSH1 0x2 ADD DUP2 SWAP1 SSTORE POP PUSH32 0x5A59CB1A35B8573E520C29B67D6511660A22E17B023B5CBC7F67B17288B2392C DUP3 PUSH1 0x1 PUSH1 0x40 MLOAD PUSH2 0x570 SWAP3 SWAP2 SWAP1 PUSH2 0x1676 JUMP JUMPDEST PUSH1 0x40 MLOAD DUP1 SWAP2 SUB SWAP1 LOG1 POP POP JUMP JUMPDEST PUSH1 0x0 CALLER PUSH20 0xFFFFFFFFFFFFFFFFFFFFFFFFFFFFFFFFFFFFFFFF AND BALANCE SWAP1 POP SWAP1 JUMP JUMPDEST PUSH1 0x2 PUSH1 0x0 SWAP1 SLOAD SWAP1 PUSH2 0x100 EXP SWAP1 DIV PUSH20 0xFFFFFFFFFFFFFFFFFFFFFFFFFFFFFFFFFFFFFFFF AND DUP2 JUMP JUMPDEST PUSH2 0x5C9 PUSH2 0xFB5 JUMP JUMPDEST DUP2 PUSH20 0xFFFFFFFFFFFFFFFFFFFFFFFFFFFFFFFFFFFFFFFF AND PUSH1 0x0 DUP1 DUP5 PUSH20 0xFFFFFFFFFFFFFFFFFFFFFFFFFFFFFFFFFFFFFFFF AND PUSH20 0xFFFFFFFFFFFFFFFFFFFFFFFFFFFFFFFFFFFFFFFF AND DUP2 MSTORE PUSH1 0x20 ADD SWAP1 DUP2 MSTORE PUSH1 0x20 ADD PUSH1 0x0 KECCAK256 PUSH1 0x1 ADD PUSH1 0x0 SWAP1 SLOAD SWAP1 PUSH2 0x100 EXP SWAP1 DIV PUSH20 0xFFFFFFFFFFFFFFFFFFFFFFFFFFFFFFFFFFFFFFFF AND PUSH20 0xFFFFFFFFFFFFFFFFFFFFFFFFFFFFFFFFFFFFFFFF AND EQ PUSH2 0x662 JUMPI PUSH1 0x0 DUP1 REVERT JUMPDEST PUSH1 0x0 DUP1 DUP4 PUSH20 0xFFFFFFFFFFFFFFFFFFFFFFFFFFFFFFFFFFFFFFFF AND PUSH20 0xFFFFFFFFFFFFFFFFFFFFFFFFFFFFFFFFFFFFFFFF AND DUP2 MSTORE PUSH1 0x20 ADD SWAP1 DUP2 MSTORE PUSH1 0x20 ADD PUSH1 0x0 KECCAK256 PUSH1 0x40 MLOAD DUP1 PUSH1 0x60 ADD PUSH1 0x40 MSTORE SWAP1 DUP2 PUSH1 0x0 DUP3 ADD DUP1 SLOAD PUSH2 0x6BB SWAP1 PUSH2 0x14AA JUMP JUMPDEST DUP1 PUSH1 0x1F ADD PUSH1 0x20 DUP1 SWAP2 DIV MUL PUSH1 0x20 ADD PUSH1 0x40 MLOAD SWAP1 DUP2 ADD PUSH1 0x40 MSTORE DUP1 SWAP3 SWAP2 SWAP1 DUP2 DUP2 MSTORE PUSH1 0x20 ADD DUP3 DUP1 SLOAD PUSH2 0x6E7 SWAP1 PUSH2 0x14AA JUMP JUMPDEST DUP1 ISZERO PUSH2 0x734 JUMPI DUP1 PUSH1 0x1F LT PUSH2 0x709 JUMPI PUSH2 0x100 DUP1 DUP4 SLOAD DIV MUL DUP4 MSTORE SWAP2 PUSH1 0x20 ADD SWAP2 PUSH2 0x734 JUMP JUMPDEST DUP3 ADD SWAP2 SWAP1 PUSH1 0x0 MSTORE PUSH1 0x20 PUSH1 0x0 KECCAK256 SWAP1 JUMPDEST DUP2 SLOAD DUP2 MSTORE SWAP1 PUSH1 0x1 ADD SWAP1 PUSH1 0x20 ADD DUP1 DUP4 GT PUSH2 0x717 JUMPI DUP3 SWAP1 SUB PUSH1 0x1F AND DUP3 ADD SWAP2 JUMPDEST POP POP POP POP POP DUP2 MSTORE PUSH1 0x20 ADD PUSH1 0x1 DUP3 ADD PUSH1 0x0 SWAP1 SLOAD SWAP1 PUSH2 0x100 EXP SWAP1 DIV PUSH20 0xFFFFFFFFFFFFFFFFFFFFFFFFFFFFFFFFFFFFFFFF AND PUSH20 0xFFFFFFFFFFFFFFFFFFFFFFFFFFFFFFFFFFFFFFFF AND PUSH20 0xFFFFFFFFFFFFFFFFFFFFFFFFFFFFFFFFFFFFFFFF AND DUP2 MSTORE PUSH1 0x20 ADD PUSH1 0x2 DUP3 ADD SLOAD DUP2 MSTORE POP POP SWAP1 POP PUSH32 0x5A59CB1A35B8573E520C29B67D6511660A22E17B023B5CBC7F67B17288B2392C DUP3 PUSH1 0x1 PUSH1 0x40 MLOAD PUSH2 0x7D1 SWAP3 SWAP2 SWAP1 PUSH2 0x1724 JUMP JUMPDEST PUSH1 0x40 MLOAD DUP1 SWAP2 SUB SWAP1 LOG1 SWAP2 SWAP1 POP JUMP JUMPDEST CALLER PUSH20 0xFFFFFFFFFFFFFFFFFFFFFFFFFFFFFFFFFFFFFFFF AND PUSH1 0x0 DUP1 CALLER PUSH20 0xFFFFFFFFFFFFFFFFFFFFFFFFFFFFFFFFFFFFFFFF AND PUSH20 0xFFFFFFFFFFFFFFFFFFFFFFFFFFFFFFFFFFFFFFFF AND DUP2 MSTORE PUSH1 0x20 ADD SWAP1 DUP2 MSTORE PUSH1 0x20 ADD PUSH1 0x0 KECCAK256 PUSH1 0x1 ADD PUSH1 0x0 SWAP1 SLOAD SWAP1 PUSH2 0x100 EXP SWAP1 DIV PUSH20 0xFFFFFFFFFFFFFFFFFFFFFFFFFFFFFFFFFFFFFFFF AND PUSH20 0xFFFFFFFFFFFFFFFFFFFFFFFFFFFFFFFFFFFFFFFF AND SUB PUSH2 0x877 JUMPI PUSH1 0x0 DUP1 REVERT JUMPDEST PUSH1 0xA CALLVALUE EQ PUSH2 0x884 JUMPI PUSH1 0x0 DUP1 REVERT JUMPDEST ADDRESS PUSH20 0xFFFFFFFFFFFFFFFFFFFFFFFFFFFFFFFFFFFFFFFF AND PUSH2 0x8FC CALLVALUE SWAP1 DUP2 ISZERO MUL SWAP1 PUSH1 0x40 MLOAD PUSH1 0x0 PUSH1 0x40 MLOAD DUP1 DUP4 SUB DUP2 DUP6 DUP9 DUP9 CALL SWAP4 POP POP POP POP ISZERO DUP1 ISZERO PUSH2 0x8CA JUMPI RETURNDATASIZE PUSH1 0x0 DUP1 RETURNDATACOPY RETURNDATASIZE PUSH1 0x0 REVERT JUMPDEST POP PUSH32 0x5A59CB1A35B8573E520C29B67D6511660A22E17B023B5CBC7F67B17288B2392C ADDRESS PUSH1 0x1 PUSH1 0x40 MLOAD PUSH2 0x8FD SWAP3 SWAP2 SWAP1 PUSH2 0x17D2 JUMP JUMPDEST PUSH1 0x40 MLOAD DUP1 SWAP2 SUB SWAP1 LOG1 PUSH1 0x0 CALLVALUE SWAP1 POP PUSH1 0x40 MLOAD DUP1 PUSH1 0x60 ADD PUSH1 0x40 MSTORE DUP1 DUP4 DUP2 MSTORE PUSH1 0x20 ADD DUP5 PUSH20 0xFFFFFFFFFFFFFFFFFFFFFFFFFFFFFFFFFFFFFFFF AND DUP2 MSTORE PUSH1 0x20 ADD DUP3 PUSH1 0x0 DUP1 DUP8 PUSH20 0xFFFFFFFFFFFFFFFFFFFFFFFFFFFFFFFFFFFFFFFF AND PUSH20 0xFFFFFFFFFFFFFFFFFFFFFFFFFFFFFFFFFFFFFFFF AND DUP2 MSTORE PUSH1 0x20 ADD SWAP1 DUP2 MSTORE PUSH1 0x20 ADD PUSH1 0x0 KECCAK256 PUSH1 0x2 ADD SLOAD PUSH2 0x984 SWAP2 SWAP1 PUSH2 0x15B5 JUMP JUMPDEST DUP2 MSTORE POP PUSH1 0x0 DUP1 DUP6 PUSH20 0xFFFFFFFFFFFFFFFFFFFFFFFFFFFFFFFFFFFFFFFF AND PUSH20 0xFFFFFFFFFFFFFFFFFFFFFFFFFFFFFFFFFFFFFFFF AND DUP2 MSTORE PUSH1 0x20 ADD SWAP1 DUP2 MSTORE PUSH1 0x20 ADD PUSH1 0x0 KECCAK256 PUSH1 0x0 DUP3 ADD MLOAD DUP2 PUSH1 0x0 ADD SWAP1 DUP2 PUSH2 0x9DA SWAP2 SWAP1 PUSH2 0x19BA JUMP JUMPDEST POP PUSH1 0x20 DUP3 ADD MLOAD DUP2 PUSH1 0x1 ADD PUSH1 0x0 PUSH2 0x100 EXP DUP2 SLOAD DUP2 PUSH20 0xFFFFFFFFFFFFFFFFFFFFFFFFFFFFFFFFFFFFFFFF MUL NOT AND SWAP1 DUP4 PUSH20 0xFFFFFFFFFFFFFFFFFFFFFFFFFFFFFFFFFFFFFFFF AND MUL OR SWAP1 SSTORE POP PUSH1 0x40 DUP3 ADD MLOAD DUP2 PUSH1 0x2 ADD SSTORE SWAP1 POP POP PUSH1 0x1 DUP4 SWAP1 DUP1 PUSH1 0x1 DUP2 SLOAD ADD DUP1 DUP3 SSTORE DUP1 SWAP2 POP POP PUSH1 0x1 SWAP1 SUB SWAP1 PUSH1 0x0 MSTORE PUSH1 0x20 PUSH1 0x0 KECCAK256 ADD PUSH1 0x0 SWAP1 SWAP2 SWAP1 SWAP2 SWAP1 SWAP2 PUSH2 0x100 EXP DUP2 SLOAD DUP2 PUSH20 0xFFFFFFFFFFFFFFFFFFFFFFFFFFFFFFFFFFFFFFFF MUL NOT AND SWAP1 DUP4 PUSH20 0xFFFFFFFFFFFFFFFFFFFFFFFFFFFFFFFFFFFFFFFF AND MUL OR SWAP1 SSTORE POP PUSH32 0x5A59CB1A35B8573E520C29B67D6511660A22E17B023B5CBC7F67B17288B2392C DUP4 PUSH1 0x1 PUSH1 0x40 MLOAD PUSH2 0xAC4 SWAP3 SWAP2 SWAP1 PUSH2 0x1AFE JUMP JUMPDEST PUSH1 0x40 MLOAD DUP1 SWAP2 SUB SWAP1 LOG1 POP POP POP JUMP JUMPDEST PUSH1 0x0 DUP1 PUSH1 0x0 SWAP1 POP JUMPDEST PUSH1 0x1 DUP1 DUP1 SLOAD SWAP1 POP PUSH2 0xAEA SWAP2 SWAP1 PUSH2 0x150A JUMP JUMPDEST DUP2 GT PUSH2 0xBBA JUMPI CALLER PUSH20 0xFFFFFFFFFFFFFFFFFFFFFFFFFFFFFFFFFFFFFFFF AND PUSH1 0x1 DUP3 DUP2 SLOAD DUP2 LT PUSH2 0xB1B JUMPI PUSH2 0xB1A PUSH2 0x153E JUMP JUMPDEST JUMPDEST SWAP1 PUSH1 0x0 MSTORE PUSH1 0x20 PUSH1 0x0 KECCAK256 ADD PUSH1 0x0 SWAP1 SLOAD SWAP1 PUSH2 0x100 EXP SWAP1 DIV PUSH20 0xFFFFFFFFFFFFFFFFFFFFFFFFFFFFFFFFFFFFFFFF AND PUSH20 0xFFFFFFFFFFFFFFFFFFFFFFFFFFFFFFFFFFFFFFFF AND SUB PUSH2 0xBA7 JUMPI PUSH1 0x1 DUP2 DUP2 SLOAD DUP2 LT PUSH2 0xB75 JUMPI PUSH2 0xB74 PUSH2 0x153E JUMP JUMPDEST JUMPDEST SWAP1 PUSH1 0x0 MSTORE PUSH1 0x20 PUSH1 0x0 KECCAK256 ADD PUSH1 0x0 SWAP1 SLOAD SWAP1 PUSH2 0x100 EXP SWAP1 DIV PUSH20 0xFFFFFFFFFFFFFFFFFFFFFFFFFFFFFFFFFFFFFFFF AND SWAP2 POP PUSH2 0xBBA JUMP JUMPDEST DUP1 DUP1 PUSH2 0xBB2 SWAP1 PUSH2 0x156D JUMP JUMPDEST SWAP2 POP POP PUSH2 0xAD9 JUMP JUMPDEST POP PUSH1 0x0 DUP1 DUP3 PUSH20 0xFFFFFFFFFFFFFFFFFFFFFFFFFFFFFFFFFFFFFFFF AND PUSH20 0xFFFFFFFFFFFFFFFFFFFFFFFFFFFFFFFFFFFFFFFF AND DUP2 MSTORE PUSH1 0x20 ADD SWAP1 DUP2 MSTORE PUSH1 0x20 ADD PUSH1 0x0 KECCAK256 PUSH1 0x2 ADD SLOAD DUP3 GT ISZERO PUSH2 0xC09 JUMPI PUSH1 0x0 DUP1 REVERT JUMPDEST DUP2 PUSH1 0x0 DUP1 DUP4 PUSH20 0xFFFFFFFFFFFFFFFFFFFFFFFFFFFFFFFFFFFFFFFF AND PUSH20 0xFFFFFFFFFFFFFFFFFFFFFFFFFFFFFFFFFFFFFFFF AND DUP2 MSTORE PUSH1 0x20 ADD SWAP1 DUP2 MSTORE PUSH1 0x20 ADD PUSH1 0x0 KECCAK256 PUSH1 0x2 ADD SLOAD PUSH2 0xC56 SWAP2 SWAP1 PUSH2 0x150A JUMP JUMPDEST PUSH1 0x0 DUP1 DUP4 PUSH20 0xFFFFFFFFFFFFFFFFFFFFFFFFFFFFFFFFFFFFFFFF AND PUSH20 0xFFFFFFFFFFFFFFFFFFFFFFFFFFFFFFFFFFFFFFFF AND DUP2 MSTORE PUSH1 0x20 ADD SWAP1 DUP2 MSTORE PUSH1 0x20 ADD PUSH1 0x0 KECCAK256 PUSH1 0x2 ADD DUP2 SWAP1 SSTORE POP SELFBALANCE DUP3 GT ISZERO PUSH2 0xCA8 JUMPI PUSH1 0x0 DUP1 REVERT JUMPDEST PUSH1 0x0 DUP3 SELFBALANCE PUSH2 0xCB6 SWAP2 SWAP1 PUSH2 0x150A JUMP JUMPDEST SWAP1 POP ADDRESS PUSH20 0xFFFFFFFFFFFFFFFFFFFFFFFFFFFFFFFFFFFFFFFF AND PUSH2 0x8FC DUP3 SWAP1 DUP2 ISZERO MUL SWAP1 PUSH1 0x40 MLOAD PUSH1 0x0 PUSH1 0x40 MLOAD DUP1 DUP4 SUB DUP2 DUP6 DUP9 DUP9 CALL SWAP4 POP POP POP POP ISZERO DUP1 ISZERO PUSH2 0xCFE JUMPI RETURNDATASIZE PUSH1 0x0 DUP1 RETURNDATACOPY RETURNDATASIZE PUSH1 0x0 REVERT JUMPDEST POP PUSH32 0x5A59CB1A35B8573E520C29B67D6511660A22E17B023B5CBC7F67B17288B2392C ADDRESS PUSH1 0x1 PUSH1 0x40 MLOAD PUSH2 0xD31 SWAP3 SWAP2 SWAP1 PUSH2 0x1BAC JUMP JUMPDEST PUSH1 0x40 MLOAD DUP1 SWAP2 SUB SWAP1 LOG1 DUP2 PUSH20 0xFFFFFFFFFFFFFFFFFFFFFFFFFFFFFFFFFFFFFFFF AND PUSH2 0x8FC DUP3 SELFBALANCE PUSH2 0xD5F SWAP2 SWAP1 PUSH2 0x150A JUMP JUMPDEST SWAP1 DUP2 ISZERO MUL SWAP1 PUSH1 0x40 MLOAD PUSH1 0x0 PUSH1 0x40 MLOAD DUP1 DUP4 SUB DUP2 DUP6 DUP9 DUP9 CALL SWAP4 POP POP POP POP ISZERO DUP1 ISZERO PUSH2 0xD8A JUMPI RETURNDATASIZE PUSH1 0x0 DUP1 RETURNDATACOPY RETURNDATASIZE PUSH1 0x0 REVERT JUMPDEST POP PUSH32 0x5A59CB1A35B8573E520C29B67D6511660A22E17B023B5CBC7F67B17288B2392C DUP3 PUSH1 0x1 PUSH1 0x40 MLOAD PUSH2 0xDBD SWAP3 SWAP2 SWAP1 PUSH2 0x1C5A JUMP JUMPDEST PUSH1 0x40 MLOAD DUP1 SWAP2 SUB SWAP1 LOG1 POP POP POP JUMP JUMPDEST PUSH2 0xDD2 PUSH2 0xFB5 JUMP JUMPDEST DUP2 PUSH20 0xFFFFFFFFFFFFFFFFFFFFFFFFFFFFFFFFFFFFFFFF AND PUSH1 0x0 DUP1 DUP5 PUSH20 0xFFFFFFFFFFFFFFFFFFFFFFFFFFFFFFFFFFFFFFFF AND PUSH20 0xFFFFFFFFFFFFFFFFFFFFFFFFFFFFFFFFFFFFFFFF AND DUP2 MSTORE PUSH1 0x20 ADD SWAP1 DUP2 MSTORE PUSH1 0x20 ADD PUSH1 0x0 KECCAK256 PUSH1 0x1 ADD PUSH1 0x0 SWAP1 SLOAD SWAP1 PUSH2 0x100 EXP SWAP1 DIV PUSH20 0xFFFFFFFFFFFFFFFFFFFFFFFFFFFFFFFFFFFFFFFF AND PUSH20 0xFFFFFFFFFFFFFFFFFFFFFFFFFFFFFFFFFFFFFFFF AND EQ PUSH2 0xE6B JUMPI PUSH1 0x0 DUP1 REVERT JUMPDEST PUSH1 0x0 DUP1 DUP4 PUSH20 0xFFFFFFFFFFFFFFFFFFFFFFFFFFFFFFFFFFFFFFFF AND PUSH20 0xFFFFFFFFFFFFFFFFFFFFFFFFFFFFFFFFFFFFFFFF AND DUP2 MSTORE PUSH1 0x20 ADD SWAP1 DUP2 MSTORE PUSH1 0x20 ADD PUSH1 0x0 KECCAK256 PUSH1 0x40 MLOAD DUP1 PUSH1 0x60 ADD PUSH1 0x40 MSTORE SWAP1 DUP2 PUSH1 0x0 DUP3 ADD DUP1 SLOAD PUSH2 0xEC4 SWAP1 PUSH2 0x14AA JUMP JUMPDEST DUP1 PUSH1 0x1F ADD PUSH1 0x20 DUP1 SWAP2 DIV MUL PUSH1 0x20 ADD PUSH1 0x40 MLOAD SWAP1 DUP2 ADD PUSH1 0x40 MSTORE DUP1 SWAP3 SWAP2 SWAP1 DUP2 DUP2 MSTORE PUSH1 0x20 ADD DUP3 DUP1 SLOAD PUSH2 0xEF0 SWAP1 PUSH2 0x14AA JUMP JUMPDEST DUP1 ISZERO PUSH2 0xF3D JUMPI DUP1 PUSH1 0x1F LT PUSH2 0xF12 JUMPI PUSH2 0x100 DUP1 DUP4 SLOAD DIV MUL DUP4 MSTORE SWAP2 PUSH1 0x20 ADD SWAP2 PUSH2 0xF3D JUMP JUMPDEST DUP3 ADD SWAP2 SWAP1 PUSH1 0x0 MSTORE PUSH1 0x20 PUSH1 0x0 KECCAK256 SWAP1 JUMPDEST DUP2 SLOAD DUP2 MSTORE SWAP1 PUSH1 0x1 ADD SWAP1 PUSH1 0x20 ADD DUP1 DUP4 GT PUSH2 0xF20 JUMPI DUP3 SWAP1 SUB PUSH1 0x1F AND DUP3 ADD SWAP2 JUMPDEST POP POP POP POP POP DUP2 MSTORE PUSH1 0x20 ADD PUSH1 0x1 DUP3 ADD PUSH1 0x0 SWAP1 SLOAD SWAP1 PUSH2 0x100 EXP SWAP1 DIV PUSH20 0xFFFFFFFFFFFFFFFFFFFFFFFFFFFFFFFFFFFFFFFF AND PUSH20 0xFFFFFFFFFFFFFFFFFFFFFFFFFFFFFFFFFFFFFFFF AND PUSH20 0xFFFFFFFFFFFFFFFFFFFFFFFFFFFFFFFFFFFFFFFF AND DUP2 MSTORE PUSH1 0x20 ADD PUSH1 0x2 DUP3 ADD SLOAD DUP2 MSTORE POP POP SWAP1 POP SWAP2 SWAP1 POP JUMP JUMPDEST PUSH1 0x0 SELFBALANCE SWAP1 POP SWAP1 JUMP JUMPDEST PUSH1 0x40 MLOAD DUP1 PUSH1 0x60 ADD PUSH1 0x40 MSTORE DUP1 PUSH1 0x60 DUP2 MSTORE PUSH1 0x20 ADD PUSH1 0x0 PUSH20 0xFFFFFFFFFFFFFFFFFFFFFFFFFFFFFFFFFFFFFFFF AND DUP2 MSTORE PUSH1 0x20 ADD PUSH1 0x0 DUP2 MSTORE POP SWAP1 JUMP JUMPDEST PUSH1 0x0 PUSH1 0x40 MLOAD SWAP1 POP SWAP1 JUMP JUMPDEST PUSH1 0x0 DUP1 REVERT JUMPDEST PUSH1 0x0 DUP1 REVERT JUMPDEST PUSH1 0x0 PUSH20 0xFFFFFFFFFFFFFFFFFFFFFFFFFFFFFFFFFFFFFFFF DUP3 AND SWAP1 POP SWAP2 SWAP1 POP JUMP JUMPDEST PUSH1 0x0 PUSH2 0x102B DUP3 PUSH2 0x1000 JUMP JUMPDEST SWAP1 POP SWAP2 SWAP1 POP JUMP JUMPDEST PUSH2 0x103B DUP2 PUSH2 0x1020 JUMP JUMPDEST DUP2 EQ PUSH2 0x1046 JUMPI PUSH1 0x0 DUP1 REVERT JUMPDEST POP JUMP JUMPDEST PUSH1 0x0 DUP2 CALLDATALOAD SWAP1 POP PUSH2 0x1058 DUP2 PUSH2 0x1032 JUMP JUMPDEST SWAP3 SWAP2 POP POP JUMP JUMPDEST PUSH1 0x0 PUSH1 0x20 DUP3 DUP5 SUB SLT ISZERO PUSH2 0x1074 JUMPI PUSH2 0x1073 PUSH2 0xFF6 JUMP JUMPDEST JUMPDEST PUSH1 0x0 PUSH2 0x1082 DUP5 DUP3 DUP6 ADD PUSH2 0x1049 JUMP JUMPDEST SWAP2 POP POP SWAP3 SWAP2 POP POP JUMP JUMPDEST PUSH1 0x0 DUP2 MLOAD SWAP1 POP SWAP2 SWAP1 POP JUMP JUMPDEST PUSH1 0x0 DUP3 DUP3 MSTORE PUSH1 0x20 DUP3 ADD SWAP1 POP SWAP3 SWAP2 POP POP JUMP JUMPDEST PUSH1 0x0 JUMPDEST DUP4 DUP2 LT ISZERO PUSH2 0x10C5 JUMPI DUP1 DUP3 ADD MLOAD DUP2 DUP5 ADD MSTORE PUSH1 0x20 DUP2 ADD SWAP1 POP PUSH2 0x10AA JUMP JUMPDEST PUSH1 0x0 DUP5 DUP5 ADD MSTORE POP POP POP POP JUMP JUMPDEST PUSH1 0x0 PUSH1 0x1F NOT PUSH1 0x1F DUP4 ADD AND SWAP1 POP SWAP2 SWAP1 POP JUMP JUMPDEST PUSH1 0x0 PUSH2 0x10ED DUP3 PUSH2 0x108B JUMP JUMPDEST PUSH2 0x10F7 DUP2 DUP6 PUSH2 0x1096 JUMP JUMPDEST SWAP4 POP PUSH2 0x1107 DUP2 DUP6 PUSH1 0x20 DUP7 ADD PUSH2 0x10A7 JUMP JUMPDEST PUSH2 0x1110 DUP2 PUSH2 0x10D1 JUMP JUMPDEST DUP5 ADD SWAP2 POP POP SWAP3 SWAP2 POP POP JUMP JUMPDEST PUSH2 0x1124 DUP2 PUSH2 0x1020 JUMP JUMPDEST DUP3 MSTORE POP POP JUMP JUMPDEST PUSH1 0x0 DUP2 SWAP1 POP SWAP2 SWAP1 POP JUMP JUMPDEST PUSH2 0x113D DUP2 PUSH2 0x112A JUMP JUMPDEST DUP3 MSTORE POP POP JUMP JUMPDEST PUSH1 0x0 PUSH1 0x60 DUP3 ADD SWAP1 POP DUP2 DUP2 SUB PUSH1 0x0 DUP4 ADD MSTORE PUSH2 0x115D DUP2 DUP7 PUSH2 0x10E2 JUMP JUMPDEST SWAP1 POP PUSH2 0x116C PUSH1 0x20 DUP4 ADD DUP6 PUSH2 0x111B JUMP JUMPDEST PUSH2 0x1179 PUSH1 0x40 DUP4 ADD DUP5 PUSH2 0x1134 JUMP JUMPDEST SWAP5 SWAP4 POP POP POP POP JUMP JUMPDEST PUSH2 0x118A DUP2 PUSH2 0x112A JUMP JUMPDEST DUP2 EQ PUSH2 0x1195 JUMPI PUSH1 0x0 DUP1 REVERT JUMPDEST POP JUMP JUMPDEST PUSH1 0x0 DUP2 CALLDATALOAD SWAP1 POP PUSH2 0x11A7 DUP2 PUSH2 0x1181 JUMP JUMPDEST SWAP3 SWAP2 POP POP JUMP JUMPDEST PUSH1 0x0 PUSH1 0x20 DUP3 DUP5 SUB SLT ISZERO PUSH2 0x11C3 JUMPI PUSH2 0x11C2 PUSH2 0xFF6 JUMP JUMPDEST JUMPDEST PUSH1 0x0 PUSH2 0x11D1 DUP5 DUP3 DUP6 ADD PUSH2 0x1198 JUMP JUMPDEST SWAP2 POP POP SWAP3 SWAP2 POP POP JUMP JUMPDEST PUSH1 0x0 PUSH1 0x20 DUP3 ADD SWAP1 POP PUSH2 0x11EF PUSH1 0x0 DUP4 ADD DUP5 PUSH2 0x111B JUMP JUMPDEST SWAP3 SWAP2 POP POP JUMP JUMPDEST PUSH1 0x0 PUSH1 0x20 DUP3 ADD SWAP1 POP PUSH2 0x120A PUSH1 0x0 DUP4 ADD DUP5 PUSH2 0x1134 JUMP JUMPDEST SWAP3 SWAP2 POP POP JUMP JUMPDEST PUSH1 0x0 DUP3 DUP3 MSTORE PUSH1 0x20 DUP3 ADD SWAP1 POP SWAP3 SWAP2 POP POP JUMP JUMPDEST PUSH1 0x0 PUSH2 0x122C DUP3 PUSH2 0x108B JUMP JUMPDEST PUSH2 0x1236 DUP2 DUP6 PUSH2 0x1210 JUMP JUMPDEST SWAP4 POP PUSH2 0x1246 DUP2 DUP6 PUSH1 0x20 DUP7 ADD PUSH2 0x10A7 JUMP JUMPDEST PUSH2 0x124F DUP2 PUSH2 0x10D1 JUMP JUMPDEST DUP5 ADD SWAP2 POP POP SWAP3 SWAP2 POP POP JUMP JUMPDEST PUSH2 0x1263 DUP2 PUSH2 0x1020 JUMP JUMPDEST DUP3 MSTORE POP POP JUMP JUMPDEST PUSH2 0x1272 DUP2 PUSH2 0x112A JUMP JUMPDEST DUP3 MSTORE POP POP JUMP JUMPDEST PUSH1 0x0 PUSH1 0x60 DUP4 ADD PUSH1 0x0 DUP4 ADD MLOAD DUP5 DUP3 SUB PUSH1 0x0 DUP7 ADD MSTORE PUSH2 0x1295 DUP3 DUP3 PUSH2 0x1221 JUMP JUMPDEST SWAP2 POP POP PUSH1 0x20 DUP4 ADD MLOAD PUSH2 0x12AA PUSH1 0x20 DUP7 ADD DUP3 PUSH2 0x125A JUMP JUMPDEST POP PUSH1 0x40 DUP4 ADD MLOAD PUSH2 0x12BD PUSH1 0x40 DUP7 ADD DUP3 PUSH2 0x1269 JUMP JUMPDEST POP DUP1 SWAP2 POP POP SWAP3 SWAP2 POP POP JUMP JUMPDEST PUSH1 0x0 PUSH1 0x20 DUP3 ADD SWAP1 POP DUP2 DUP2 SUB PUSH1 0x0 DUP4 ADD MSTORE PUSH2 0x12E2 DUP2 DUP5 PUSH2 0x1278 JUMP JUMPDEST SWAP1 POP SWAP3 SWAP2 POP POP JUMP JUMPDEST PUSH1 0x0 DUP1 REVERT JUMPDEST PUSH1 0x0 DUP1 REVERT JUMPDEST PUSH32 0x4E487B7100000000000000000000000000000000000000000000000000000000 PUSH1 0x0 MSTORE PUSH1 0x41 PUSH1 0x4 MSTORE PUSH1 0x24 PUSH1 0x0 REVERT JUMPDEST PUSH2 0x132C DUP3 PUSH2 0x10D1 JUMP JUMPDEST DUP2 ADD DUP2 DUP2 LT PUSH8 0xFFFFFFFFFFFFFFFF DUP3 GT OR ISZERO PUSH2 0x134B JUMPI PUSH2 0x134A PUSH2 0x12F4 JUMP JUMPDEST JUMPDEST DUP1 PUSH1 0x40 MSTORE POP POP POP JUMP JUMPDEST PUSH1 0x0 PUSH2 0x135E PUSH2 0xFEC JUMP JUMPDEST SWAP1 POP PUSH2 0x136A DUP3 DUP3 PUSH2 0x1323 JUMP JUMPDEST SWAP2 SWAP1 POP JUMP JUMPDEST PUSH1 0x0 PUSH8 0xFFFFFFFFFFFFFFFF DUP3 GT ISZERO PUSH2 0x138A JUMPI PUSH2 0x1389 PUSH2 0x12F4 JUMP JUMPDEST JUMPDEST PUSH2 0x1393 DUP3 PUSH2 0x10D1 JUMP JUMPDEST SWAP1 POP PUSH1 0x20 DUP2 ADD SWAP1 POP SWAP2 SWAP1 POP JUMP JUMPDEST DUP3 DUP2 DUP4 CALLDATACOPY PUSH1 0x0 DUP4 DUP4 ADD MSTORE POP POP POP JUMP JUMPDEST PUSH1 0x0 PUSH2 0x13C2 PUSH2 0x13BD DUP5 PUSH2 0x136F JUMP JUMPDEST PUSH2 0x1354 JUMP JUMPDEST SWAP1 POP DUP3 DUP2 MSTORE PUSH1 0x20 DUP2 ADD DUP5 DUP5 DUP5 ADD GT ISZERO PUSH2 0x13DE JUMPI PUSH2 0x13DD PUSH2 0x12EF JUMP JUMPDEST JUMPDEST PUSH2 0x13E9 DUP5 DUP3 DUP6 PUSH2 0x13A0 JUMP JUMPDEST POP SWAP4 SWAP3 POP POP POP JUMP JUMPDEST PUSH1 0x0 DUP3 PUSH1 0x1F DUP4 ADD SLT PUSH2 0x1406 JUMPI PUSH2 0x1405 PUSH2 0x12EA JUMP JUMPDEST JUMPDEST DUP2 CALLDATALOAD PUSH2 0x1416 DUP5 DUP3 PUSH1 0x20 DUP7 ADD PUSH2 0x13AF JUMP JUMPDEST SWAP2 POP POP SWAP3 SWAP2 POP POP JUMP JUMPDEST PUSH1 0x0 DUP1 PUSH1 0x40 DUP4 DUP6 SUB SLT ISZERO PUSH2 0x1436 JUMPI PUSH2 0x1435 PUSH2 0xFF6 JUMP JUMPDEST JUMPDEST PUSH1 0x0 PUSH2 0x1444 DUP6 DUP3 DUP7 ADD PUSH2 0x1049 JUMP JUMPDEST SWAP3 POP POP PUSH1 0x20 DUP4 ADD CALLDATALOAD PUSH8 0xFFFFFFFFFFFFFFFF DUP2 GT ISZERO PUSH2 0x1465 JUMPI PUSH2 0x1464 PUSH2 0xFFB JUMP JUMPDEST JUMPDEST PUSH2 0x1471 DUP6 DUP3 DUP7 ADD PUSH2 0x13F1 JUMP JUMPDEST SWAP2 POP POP SWAP3 POP SWAP3 SWAP1 POP JUMP JUMPDEST PUSH32 0x4E487B7100000000000000000000000000000000000000000000000000000000 PUSH1 0x0 MSTORE PUSH1 0x22 PUSH1 0x4 MSTORE PUSH1 0x24 PUSH1 0x0 REVERT JUMPDEST PUSH1 0x0 PUSH1 0x2 DUP3 DIV SWAP1 POP PUSH1 0x1 DUP3 AND DUP1 PUSH2 0x14C2 JUMPI PUSH1 0x7F DUP3 AND SWAP2 POP JUMPDEST PUSH1 0x20 DUP3 LT DUP2 SUB PUSH2 0x14D5 JUMPI PUSH2 0x14D4 PUSH2 0x147B JUMP JUMPDEST JUMPDEST POP SWAP2 SWAP1 POP JUMP JUMPDEST PUSH32 0x4E487B7100000000000000000000000000000000000000000000000000000000 PUSH1 0x0 MSTORE PUSH1 0x11 PUSH1 0x4 MSTORE PUSH1 0x24 PUSH1 0x0 REVERT JUMPDEST PUSH1 0x0 PUSH2 0x1515 DUP3 PUSH2 0x112A JUMP JUMPDEST SWAP2 POP PUSH2 0x1520 DUP4 PUSH2 0x112A JUMP JUMPDEST SWAP3 POP DUP3 DUP3 SUB SWAP1 POP DUP2 DUP2 GT ISZERO PUSH2 0x1538 JUMPI PUSH2 0x1537 PUSH2 0x14DB JUMP JUMPDEST JUMPDEST SWAP3 SWAP2 POP POP JUMP JUMPDEST PUSH32 0x4E487B7100000000000000000000000000000000000000000000000000000000 PUSH1 0x0 MSTORE PUSH1 0x32 PUSH1 0x4 MSTORE PUSH1 0x24 PUSH1 0x0 REVERT JUMPDEST PUSH1 0x0 PUSH2 0x1578 DUP3 PUSH2 0x112A JUMP JUMPDEST SWAP2 POP PUSH32 0xFFFFFFFFFFFFFFFFFFFFFFFFFFFFFFFFFFFFFFFFFFFFFFFFFFFFFFFFFFFFFFFF DUP3 SUB PUSH2 0x15AA JUMPI PUSH2 0x15A9 PUSH2 0x14DB JUMP JUMPDEST JUMPDEST PUSH1 0x1 DUP3 ADD SWAP1 POP SWAP2 SWAP1 POP JUMP JUMPDEST PUSH1 0x0 PUSH2 0x15C0 DUP3 PUSH2 0x112A JUMP JUMPDEST SWAP2 POP PUSH2 0x15CB DUP4 PUSH2 0x112A JUMP JUMPDEST SWAP3 POP DUP3 DUP3 ADD SWAP1 POP DUP1 DUP3 GT ISZERO PUSH2 0x15E3 JUMPI PUSH2 0x15E2 PUSH2 0x14DB JUMP JUMPDEST JUMPDEST SWAP3 SWAP2 POP POP JUMP JUMPDEST PUSH1 0x0 DUP2 ISZERO ISZERO SWAP1 POP SWAP2 SWAP1 POP JUMP JUMPDEST PUSH2 0x15FE DUP2 PUSH2 0x15E9 JUMP JUMPDEST DUP3 MSTORE POP POP JUMP JUMPDEST PUSH32 0x416D6F757420686173206265656E206372656469746564207375636365737366 PUSH1 0x0 DUP3 ADD MSTORE PUSH32 0x756C6C792E2E2E00000000000000000000000000000000000000000000000000 PUSH1 0x20 DUP3 ADD MSTORE POP JUMP JUMPDEST PUSH1 0x0 PUSH2 0x1660 PUSH1 0x27 DUP4 PUSH2 0x1096 JUMP JUMPDEST SWAP2 POP PUSH2 0x166B DUP3 PUSH2 0x1604 JUMP JUMPDEST PUSH1 0x40 DUP3 ADD SWAP1 POP SWAP2 SWAP1 POP JUMP JUMPDEST PUSH1 0x0 PUSH1 0x60 DUP3 ADD SWAP1 POP PUSH2 0x168B PUSH1 0x0 DUP4 ADD DUP6 PUSH2 0x111B JUMP JUMPDEST PUSH2 0x1698 PUSH1 0x20 DUP4 ADD DUP5 PUSH2 0x15F5 JUMP JUMPDEST DUP2 DUP2 SUB PUSH1 0x40 DUP4 ADD MSTORE PUSH2 0x16A9 DUP2 PUSH2 0x1653 JUMP JUMPDEST SWAP1 POP SWAP4 SWAP3 POP POP POP JUMP JUMPDEST PUSH32 0x41636F756E7420486173204265656E20666F756E64205375636365737366756C PUSH1 0x0 DUP3 ADD MSTORE PUSH32 0x6C792E2E2E000000000000000000000000000000000000000000000000000000 PUSH1 0x20 DUP3 ADD MSTORE POP JUMP JUMPDEST PUSH1 0x0 PUSH2 0x170E PUSH1 0x25 DUP4 PUSH2 0x1096 JUMP JUMPDEST SWAP2 POP PUSH2 0x1719 DUP3 PUSH2 0x16B2 JUMP JUMPDEST PUSH1 0x40 DUP3 ADD SWAP1 POP SWAP2 SWAP1 POP JUMP JUMPDEST PUSH1 0x0 PUSH1 0x60 DUP3 ADD SWAP1 POP PUSH2 0x1739 PUSH1 0x0 DUP4 ADD DUP6 PUSH2 0x111B JUMP JUMPDEST PUSH2 0x1746 PUSH1 0x20 DUP4 ADD DUP5 PUSH2 0x15F5 JUMP JUMPDEST DUP2 DUP2 SUB PUSH1 0x40 DUP4 ADD MSTORE PUSH2 0x1757 DUP2 PUSH2 0x1701 JUMP JUMPDEST SWAP1 POP SWAP4 SWAP3 POP POP POP JUMP JUMPDEST PUSH32 0x596F757220616D6F756E7420686173206265656E206465626974656420746F20 PUSH1 0x0 DUP3 ADD MSTORE PUSH32 0x7468652062616E6B206163636F756E7400000000000000000000000000000000 PUSH1 0x20 DUP3 ADD MSTORE POP JUMP JUMPDEST PUSH1 0x0 PUSH2 0x17BC PUSH1 0x30 DUP4 PUSH2 0x1096 JUMP JUMPDEST SWAP2 POP PUSH2 0x17C7 DUP3 PUSH2 0x1760 JUMP JUMPDEST PUSH1 0x40 DUP3 ADD SWAP1 POP SWAP2 SWAP1 POP JUMP JUMPDEST PUSH1 0x0 PUSH1 0x60 DUP3 ADD SWAP1 POP PUSH2 0x17E7 PUSH1 0x0 DUP4 ADD DUP6 PUSH2 0x111B JUMP JUMPDEST PUSH2 0x17F4 PUSH1 0x20 DUP4 ADD DUP5 PUSH2 0x15F5 JUMP JUMPDEST DUP2 DUP2 SUB PUSH1 0x40 DUP4 ADD MSTORE PUSH2 0x1805 DUP2 PUSH2 0x17AF JUMP JUMPDEST SWAP1 POP SWAP4 SWAP3 POP POP POP JUMP JUMPDEST PUSH1 0x0 DUP2 SWAP1 POP DUP2 PUSH1 0x0 MSTORE PUSH1 0x20 PUSH1 0x0 KECCAK256 SWAP1 POP SWAP2 SWAP1 POP JUMP JUMPDEST PUSH1 0x0 PUSH1 0x20 PUSH1 0x1F DUP4 ADD DIV SWAP1 POP SWAP2 SWAP1 POP JUMP JUMPDEST PUSH1 0x0 DUP3 DUP3 SHL SWAP1 POP SWAP3 SWAP2 POP POP JUMP JUMPDEST PUSH1 0x0 PUSH1 0x8 DUP4 MUL PUSH2 0x1870 PUSH32 0xFFFFFFFFFFFFFFFFFFFFFFFFFFFFFFFFFFFFFFFFFFFFFFFFFFFFFFFFFFFFFFFF DUP3 PUSH2 0x1833 JUMP JUMPDEST PUSH2 0x187A DUP7 DUP4 PUSH2 0x1833 JUMP JUMPDEST SWAP6 POP DUP1 NOT DUP5 AND SWAP4 POP DUP1 DUP7 AND DUP5 OR SWAP3 POP POP POP SWAP4 SWAP3 POP POP POP JUMP JUMPDEST PUSH1 0x0 DUP2 SWAP1 POP SWAP2 SWAP1 POP JUMP JUMPDEST PUSH1 0x0 PUSH2 0x18B7 PUSH2 0x18B2 PUSH2 0x18AD DUP5 PUSH2 0x112A JUMP JUMPDEST PUSH2 0x1892 JUMP JUMPDEST PUSH2 0x112A JUMP JUMPDEST SWAP1 POP SWAP2 SWAP1 POP JUMP JUMPDEST PUSH1 0x0 DUP2 SWAP1 POP SWAP2 SWAP1 POP JUMP JUMPDEST PUSH2 0x18D1 DUP4 PUSH2 0x189C JUMP JUMPDEST PUSH2 0x18E5 PUSH2 0x18DD DUP3 PUSH2 0x18BE JUMP JUMPDEST DUP5 DUP5 SLOAD PUSH2 0x1840 JUMP JUMPDEST DUP3 SSTORE POP POP POP POP JUMP JUMPDEST PUSH1 0x0 SWAP1 JUMP JUMPDEST PUSH2 0x18FA PUSH2 0x18ED JUMP JUMPDEST PUSH2 0x1905 DUP2 DUP5 DUP5 PUSH2 0x18C8 JUMP JUMPDEST POP POP POP JUMP JUMPDEST JUMPDEST DUP2 DUP2 LT ISZERO PUSH2 0x1929 JUMPI PUSH2 0x191E PUSH1 0x0 DUP3 PUSH2 0x18F2 JUMP JUMPDEST PUSH1 0x1 DUP2 ADD SWAP1 POP PUSH2 0x190B JUMP JUMPDEST POP POP JUMP JUMPDEST PUSH1 0x1F DUP3 GT ISZERO PUSH2 0x196E JUMPI PUSH2 0x193F DUP2 PUSH2 0x180E JUMP JUMPDEST PUSH2 0x1948 DUP5 PUSH2 0x1823 JUMP JUMPDEST DUP2 ADD PUSH1 0x20 DUP6 LT ISZERO PUSH2 0x1957 JUMPI DUP2 SWAP1 POP JUMPDEST PUSH2 0x196B PUSH2 0x1963 DUP6 PUSH2 0x1823 JUMP JUMPDEST DUP4 ADD DUP3 PUSH2 0x190A JUMP JUMPDEST POP POP JUMPDEST POP POP POP JUMP JUMPDEST PUSH1 0x0 DUP3 DUP3 SHR SWAP1 POP SWAP3 SWAP2 POP POP JUMP JUMPDEST PUSH1 0x0 PUSH2 0x1991 PUSH1 0x0 NOT DUP5 PUSH1 0x8 MUL PUSH2 0x1973 JUMP JUMPDEST NOT DUP1 DUP4 AND SWAP2 POP POP SWAP3 SWAP2 POP POP JUMP JUMPDEST PUSH1 0x0 PUSH2 0x19AA DUP4 DUP4 PUSH2 0x1980 JUMP JUMPDEST SWAP2 POP DUP3 PUSH1 0x2 MUL DUP3 OR SWAP1 POP SWAP3 SWAP2 POP POP JUMP JUMPDEST PUSH2 0x19C3 DUP3 PUSH2 0x108B JUMP JUMPDEST PUSH8 0xFFFFFFFFFFFFFFFF DUP2 GT ISZERO PUSH2 0x19DC JUMPI PUSH2 0x19DB PUSH2 0x12F4 JUMP JUMPDEST JUMPDEST PUSH2 0x19E6 DUP3 SLOAD PUSH2 0x14AA JUMP JUMPDEST PUSH2 0x19F1 DUP3 DUP3 DUP6 PUSH2 0x192D JUMP JUMPDEST PUSH1 0x0 PUSH1 0x20 SWAP1 POP PUSH1 0x1F DUP4 GT PUSH1 0x1 DUP2 EQ PUSH2 0x1A24 JUMPI PUSH1 0x0 DUP5 ISZERO PUSH2 0x1A12 JUMPI DUP3 DUP8 ADD MLOAD SWAP1 POP JUMPDEST PUSH2 0x1A1C DUP6 DUP3 PUSH2 0x199E JUMP JUMPDEST DUP7 SSTORE POP PUSH2 0x1A84 JUMP JUMPDEST PUSH1 0x1F NOT DUP5 AND PUSH2 0x1A32 DUP7 PUSH2 0x180E JUMP JUMPDEST PUSH1 0x0 JUMPDEST DUP3 DUP2 LT ISZERO PUSH2 0x1A5A JUMPI DUP5 DUP10 ADD MLOAD DUP3 SSTORE PUSH1 0x1 DUP3 ADD SWAP2 POP PUSH1 0x20 DUP6 ADD SWAP5 POP PUSH1 0x20 DUP2 ADD SWAP1 POP PUSH2 0x1A35 JUMP JUMPDEST DUP7 DUP4 LT ISZERO PUSH2 0x1A77 JUMPI DUP5 DUP10 ADD MLOAD PUSH2 0x1A73 PUSH1 0x1F DUP10 AND DUP3 PUSH2 0x1980 JUMP JUMPDEST DUP4 SSTORE POP JUMPDEST PUSH1 0x1 PUSH1 0x2 DUP9 MUL ADD DUP9 SSTORE POP POP POP JUMPDEST POP POP POP POP POP POP JUMP JUMPDEST PUSH32 0x41636F756E7420486173204265656E2043726561746564205375636365737366 PUSH1 0x0 DUP3 ADD MSTORE PUSH32 0x756C6C792E2E2E00000000000000000000000000000000000000000000000000 PUSH1 0x20 DUP3 ADD MSTORE POP JUMP JUMPDEST PUSH1 0x0 PUSH2 0x1AE8 PUSH1 0x27 DUP4 PUSH2 0x1096 JUMP JUMPDEST SWAP2 POP PUSH2 0x1AF3 DUP3 PUSH2 0x1A8C JUMP JUMPDEST PUSH1 0x40 DUP3 ADD SWAP1 POP SWAP2 SWAP1 POP JUMP JUMPDEST PUSH1 0x0 PUSH1 0x60 DUP3 ADD SWAP1 POP PUSH2 0x1B13 PUSH1 0x0 DUP4 ADD DUP6 PUSH2 0x111B JUMP JUMPDEST PUSH2 0x1B20 PUSH1 0x20 DUP4 ADD DUP5 PUSH2 0x15F5 JUMP JUMPDEST DUP2 DUP2 SUB PUSH1 0x40 DUP4 ADD MSTORE PUSH2 0x1B31 DUP2 PUSH2 0x1ADB JUMP JUMPDEST SWAP1 POP SWAP4 SWAP3 POP POP POP JUMP JUMPDEST PUSH32 0x416D6F756E7420686173206265656E2064656475637465642066726F6D207468 PUSH1 0x0 DUP3 ADD MSTORE PUSH32 0x6520436F6E74726163742E2E2E00000000000000000000000000000000000000 PUSH1 0x20 DUP3 ADD MSTORE POP JUMP JUMPDEST PUSH1 0x0 PUSH2 0x1B96 PUSH1 0x2D DUP4 PUSH2 0x1096 JUMP JUMPDEST SWAP2 POP PUSH2 0x1BA1 DUP3 PUSH2 0x1B3A JUMP JUMPDEST PUSH1 0x40 DUP3 ADD SWAP1 POP SWAP2 SWAP1 POP JUMP JUMPDEST PUSH1 0x0 PUSH1 0x60 DUP3 ADD SWAP1 POP PUSH2 0x1BC1 PUSH1 0x0 DUP4 ADD DUP6 PUSH2 0x111B JUMP JUMPDEST PUSH2 0x1BCE PUSH1 0x20 DUP4 ADD DUP5 PUSH2 0x15F5 JUMP JUMPDEST DUP2 DUP2 SUB PUSH1 0x40 DUP4 ADD MSTORE PUSH2 0x1BDF DUP2 PUSH2 0x1B89 JUMP JUMPDEST SWAP1 POP SWAP4 SWAP3 POP POP POP JUMP JUMPDEST PUSH32 0x416D6F756E74206861732073756363657366756C6C79206265656E2077697468 PUSH1 0x0 DUP3 ADD MSTORE PUSH32 0x647261776C20746F20796F7572206163636F756E742E2E2E0000000000000000 PUSH1 0x20 DUP3 ADD MSTORE POP JUMP JUMPDEST PUSH1 0x0 PUSH2 0x1C44 PUSH1 0x38 DUP4 PUSH2 0x1096 JUMP JUMPDEST SWAP2 POP PUSH2 0x1C4F DUP3 PUSH2 0x1BE8 JUMP JUMPDEST PUSH1 0x40 DUP3 ADD SWAP1 POP SWAP2 SWAP1 POP JUMP JUMPDEST PUSH1 0x0 PUSH1 0x60 DUP3 ADD SWAP1 POP PUSH2 0x1C6F PUSH1 0x0 DUP4 ADD DUP6 PUSH2 0x111B JUMP JUMPDEST PUSH2 0x1C7C PUSH1 0x20 DUP4 ADD DUP5 PUSH2 0x15F5 JUMP JUMPDEST DUP2 DUP2 SUB PUSH1 0x40 DUP4 ADD MSTORE PUSH2 0x1C8D DUP2 PUSH2 0x1C37 JUMP JUMPDEST SWAP1 POP SWAP4 SWAP3 POP POP POP JUMP INVALID LOG2 PUSH5 0x6970667358 0x22 SLT KECCAK256 0xC9 0xE8 0xAB SLOAD SWAP8 SHL SDIV PUSH6 0xBBDBE966E316 PUSH24 0x5AA529EC730D07B952F3B1A869BD52DC3B64736F6C634300 ADDMOD GT STOP CALLER "},"methodIdentifiers":{"AccountBalance()":"77c3ef3d","Customer(address)":"3894d0b3","DepositeAmount()":"70e7733e","GetAccount(address)":"d3674148","GetContractBalance()":"f6d0bf2f","OpeningAccount(address,string)":"b27c51d5","VisitAccount(address)":"a9e0fb99","WithDraw(uint256)":"cbe159bb","owner()":"8da5cb5b","userarray(uint256)":"409d25fd"}}}}}