{"contracts/CryptoWallet.sol":{"CryptoWallet":{"abi":[{"anonymous":false,"inputs":[{"indexed":false,"internalType":"address","name":"useraddress","type":"address"},{"indexed":false,"internalType":"string","name":"message","type":"string"}],"name":"AlertMsg","type":"event"},{"inputs":[{"internalType":"address","name":"","type":"address"}],"name":"Customer","outputs":[{"internalType":"string","name":"name","type":"string"},{"internalType":"address","name":"useraddress","type":"address"},{"internalType":"uint256","name":"saving_amount","type":"uint256"}],"stateMutability":"view","type":"function"},{"inputs":[],"name":"GetContractBalance","outputs":[],"stateMutability":"payable","type":"function"},{"inputs":[],"name":"GetMyBal","outputs":[{"internalType":"uint256","name":"","type":"uint256"}],"stateMutability":"view","type":"function"},{"inputs":[{"internalType":"address","name":"user","type":"address"},{"internalType":"string","name":"name_","type":"string"}],"name":"OpeningAccount","outputs":[],"stateMutability":"payable","type":"function"},{"inputs":[{"internalType":"uint256","name":"","type":"uint256"}],"name":"userarray","outputs":[{"internalType":"address","name":"","type":"address"}],"stateMutability":"view","type":"function"},{"stateMutability":"payable","type":"receive"}],"evm":{"bytecode":{"linkReferences":{},"object":"608060405234801561001057600080fd5b50610eaa806100206000396000f3fe60806040526004361061004e5760003560e01c80633894d0b31461005a578063409d25fd1461009957806360ebb94e146100d6578063b27c51d514610101578063f6d0bf2f1461011d57610055565b3661005557005b600080fd5b34801561006657600080fd5b50610081600480360381019061007c919061062b565b610127565b60405161009093929190610710565b60405180910390f35b3480156100a557600080fd5b506100c060048036038101906100bb919061077a565b6101f9565b6040516100cd91906107a7565b60405180910390f35b3480156100e257600080fd5b506100eb610238565b6040516100f891906107c2565b60405180910390f35b61011b60048036038101906101169190610912565b610247565b005b610125610549565b005b600060205280600052604060002060009150905080600001805461014a9061099d565b80601f01602080910402602001604051908101604052809291908181526020018280546101769061099d565b80156101c35780601f10610198576101008083540402835291602001916101c3565b820191906000526020600020905b8154815290600101906020018083116101a657829003601f168201915b5050505050908060010160009054906101000a900473ffffffffffffffffffffffffffffffffffffffff16908060020154905083565b6001818154811061020957600080fd5b906000526020600020016000915054906101000a900473ffffffffffffffffffffffffffffffffffffffff1681565b60008060025490508091505090565b60005b6001808054905061025b91906109fd565b8111610321578273ffffffffffffffffffffffffffffffffffffffff166001828154811061028c5761028b610a31565b5b9060005260206000200160009054906101000a900473ffffffffffffffffffffffffffffffffffffffff1673ffffffffffffffffffffffffffffffffffffffff160361030e577f844c2087bb7f3ef3b5cdbad919f68fb5be2647a6c9645593c60c0456e93dce2e836040516103019190610aac565b60405180910390a1610321565b808061031990610ada565b91505061024a565b50670de0b6b3a7640000340361033657600080fd5b3073ffffffffffffffffffffffffffffffffffffffff166108fc349081150290604051600060405180830381858888f1935050505015801561037c573d6000803e3d6000fd5b503460028190555060405180606001604052808281526020018373ffffffffffffffffffffffffffffffffffffffff1681526020016002546000808673ffffffffffffffffffffffffffffffffffffffff1673ffffffffffffffffffffffffffffffffffffffff168152602001908152602001600020600201546104009190610b22565b8152506000808473ffffffffffffffffffffffffffffffffffffffff1673ffffffffffffffffffffffffffffffffffffffff16815260200190815260200160002060008201518160000190816104569190610d02565b5060208201518160010160006101000a81548173ffffffffffffffffffffffffffffffffffffffff021916908373ffffffffffffffffffffffffffffffffffffffff160217905550604082015181600201559050506001829080600181540180825580915050600190039060005260206000200160009091909190916101000a81548173ffffffffffffffffffffffffffffffffffffffff021916908373ffffffffffffffffffffffffffffffffffffffff1602179055507f844c2087bb7f3ef3b5cdbad919f68fb5be2647a6c9645593c60c0456e93dce2e8260405161053d9190610e46565b60405180910390a15050565b670de0b6b3a7640000340361055d57600080fd5b3073ffffffffffffffffffffffffffffffffffffffff166108fc349081150290604051600060405180830381858888f193505050501580156105a3573d6000803e3d6000fd5b506001346105b191906109fd565b600281905550565b6000604051905090565b600080fd5b600080fd5b600073ffffffffffffffffffffffffffffffffffffffff82169050919050565b60006105f8826105cd565b9050919050565b610608816105ed565b811461061357600080fd5b50565b600081359050610625816105ff565b92915050565b600060208284031215610641576106406105c3565b5b600061064f84828501610616565b91505092915050565b600081519050919050565b600082825260208201905092915050565b60005b83811015610692578082015181840152602081019050610677565b60008484015250505050565b6000601f19601f8301169050919050565b60006106ba82610658565b6106c48185610663565b93506106d4818560208601610674565b6106dd8161069e565b840191505092915050565b6106f1816105ed565b82525050565b6000819050919050565b61070a816106f7565b82525050565b6000606082019050818103600083015261072a81866106af565b905061073960208301856106e8565b6107466040830184610701565b949350505050565b610757816106f7565b811461076257600080fd5b50565b6000813590506107748161074e565b92915050565b6000602082840312156107905761078f6105c3565b5b600061079e84828501610765565b91505092915050565b60006020820190506107bc60008301846106e8565b92915050565b60006020820190506107d76000830184610701565b92915050565b600080fd5b600080fd5b7f4e487b7100000000000000000000000000000000000000000000000000000000600052604160045260246000fd5b61081f8261069e565b810181811067ffffffffffffffff8211171561083e5761083d6107e7565b5b80604052505050565b60006108516105b9565b905061085d8282610816565b919050565b600067ffffffffffffffff82111561087d5761087c6107e7565b5b6108868261069e565b9050602081019050919050565b82818337600083830152505050565b60006108b56108b084610862565b610847565b9050828152602081018484840111156108d1576108d06107e2565b5b6108dc848285610893565b509392505050565b600082601f8301126108f9576108f86107dd565b5b81356109098482602086016108a2565b91505092915050565b60008060408385031215610929576109286105c3565b5b600061093785828601610616565b925050602083013567ffffffffffffffff811115610958576109576105c8565b5b610964858286016108e4565b9150509250929050565b7f4e487b7100000000000000000000000000000000000000000000000000000000600052602260045260246000fd5b600060028204905060018216806109b557607f821691505b6020821081036109c8576109c761096e565b5b50919050565b7f4e487b7100000000000000000000000000000000000000000000000000000000600052601160045260246000fd5b6000610a08826106f7565b9150610a13836106f7565b9250828203905081811115610a2b57610a2a6109ce565b5b92915050565b7f4e487b7100000000000000000000000000000000000000000000000000000000600052603260045260246000fd5b7f41636f756e7420616c72656164792065786973742e2e2e000000000000000000600082015250565b6000610a96601783610663565b9150610aa182610a60565b602082019050919050565b6000604082019050610ac160008301846106e8565b8181036020830152610ad281610a89565b905092915050565b6000610ae5826106f7565b91507fffffffffffffffffffffffffffffffffffffffffffffffffffffffffffffffff8203610b1757610b166109ce565b5b600182019050919050565b6000610b2d826106f7565b9150610b38836106f7565b9250828201905080821115610b5057610b4f6109ce565b5b92915050565b60008190508160005260206000209050919050565b60006020601f8301049050919050565b600082821b905092915050565b600060088302610bb87fffffffffffffffffffffffffffffffffffffffffffffffffffffffffffffffff82610b7b565b610bc28683610b7b565b95508019841693508086168417925050509392505050565b6000819050919050565b6000610bff610bfa610bf5846106f7565b610bda565b6106f7565b9050919050565b6000819050919050565b610c1983610be4565b610c2d610c2582610c06565b848454610b88565b825550505050565b600090565b610c42610c35565b610c4d818484610c10565b505050565b5b81811015610c7157610c66600082610c3a565b600181019050610c53565b5050565b601f821115610cb657610c8781610b56565b610c9084610b6b565b81016020851015610c9f578190505b610cb3610cab85610b6b565b830182610c52565b50505b505050565b600082821c905092915050565b6000610cd960001984600802610cbb565b1980831691505092915050565b6000610cf28383610cc8565b9150826002028217905092915050565b610d0b82610658565b67ffffffffffffffff811115610d2457610d236107e7565b5b610d2e825461099d565b610d39828285610c75565b600060209050601f831160018114610d6c5760008415610d5a578287015190505b610d648582610ce6565b865550610dcc565b601f198416610d7a86610b56565b60005b82811015610da257848901518255600182019150602085019450602081019050610d7d565b86831015610dbf5784890151610dbb601f891682610cc8565b8355505b6001600288020188555050505b505050505050565b7f41636f756e7420486173204265656e204372656174656420537563636573736660008201527f756c6c792e2e2e00000000000000000000000000000000000000000000000000602082015250565b6000610e30602783610663565b9150610e3b82610dd4565b604082019050919050565b6000604082019050610e5b60008301846106e8565b8181036020830152610e6c81610e23565b90509291505056fea2646970667358221220db61b00fd53021b25f89f09aee4d3248ca152afa0ba277978011d2d0c109294d64736f6c63430008110033","opcodes":"PUSH1 0x80 PUSH1 0x40 MSTORE CALLVALUE DUP1 ISZERO PUSH2 0x10 JUMPI PUSH1 0x0 DUP1 REVERT JUMPDEST POP PUSH2 0xEAA DUP1 PUSH2 0x20 PUSH1 0x0 CODECOPY PUSH1 0x0 RETURN INVALID PUSH1 0x80 PUSH1 0x40 MSTORE PUSH1 0x4 CALLDATASIZE LT PUSH2 0x4E JUMPI PUSH1 0x0 CALLDATALOAD PUSH1 0xE0 SHR DUP1 PUSH4 0x3894D0B3 EQ PUSH2 0x5A JUMPI DUP1 PUSH4 0x409D25FD EQ PUSH2 0x99 JUMPI DUP1 PUSH4 0x60EBB94E EQ PUSH2 0xD6 JUMPI DUP1 PUSH4 0xB27C51D5 EQ PUSH2 0x101 JUMPI DUP1 PUSH4 0xF6D0BF2F EQ PUSH2 0x11D JUMPI PUSH2 0x55 JUMP JUMPDEST CALLDATASIZE PUSH2 0x55 JUMPI STOP JUMPDEST PUSH1 0x0 DUP1 REVERT JUMPDEST CALLVALUE DUP1 ISZERO PUSH2 0x66 JUMPI PUSH1 0x0 DUP1 REVERT JUMPDEST POP PUSH2 0x81 PUSH1 0x4 DUP1 CALLDATASIZE SUB DUP2 ADD SWAP1 PUSH2 0x7C SWAP2 SWAP1 PUSH2 0x62B JUMP JUMPDEST PUSH2 0x127 JUMP JUMPDEST PUSH1 0x40 MLOAD PUSH2 0x90 SWAP4 SWAP3 SWAP2 SWAP1 PUSH2 0x710 JUMP JUMPDEST PUSH1 0x40 MLOAD DUP1 SWAP2 SUB SWAP1 RETURN JUMPDEST CALLVALUE DUP1 ISZERO PUSH2 0xA5 JUMPI PUSH1 0x0 DUP1 REVERT JUMPDEST POP PUSH2 0xC0 PUSH1 0x4 DUP1 CALLDATASIZE SUB DUP2 ADD SWAP1 PUSH2 0xBB SWAP2 SWAP1 PUSH2 0x77A JUMP JUMPDEST PUSH2 0x1F9 JUMP JUMPDEST PUSH1 0x40 MLOAD PUSH2 0xCD SWAP2 SWAP1 PUSH2 0x7A7 JUMP JUMPDEST PUSH1 0x40 MLOAD DUP1 SWAP2 SUB SWAP1 RETURN JUMPDEST CALLVALUE DUP1 ISZERO PUSH2 0xE2 JUMPI PUSH1 0x0 DUP1 REVERT JUMPDEST POP PUSH2 0xEB PUSH2 0x238 JUMP JUMPDEST PUSH1 0x40 MLOAD PUSH2 0xF8 SWAP2 SWAP1 PUSH2 0x7C2 JUMP JUMPDEST PUSH1 0x40 MLOAD DUP1 SWAP2 SUB SWAP1 RETURN JUMPDEST PUSH2 0x11B PUSH1 0x4 DUP1 CALLDATASIZE SUB DUP2 ADD SWAP1 PUSH2 0x116 SWAP2 SWAP1 PUSH2 0x912 JUMP JUMPDEST PUSH2 0x247 JUMP JUMPDEST STOP JUMPDEST PUSH2 0x125 PUSH2 0x549 JUMP JUMPDEST STOP JUMPDEST PUSH1 0x0 PUSH1 0x20 MSTORE DUP1 PUSH1 0x0 MSTORE PUSH1 0x40 PUSH1 0x0 KECCAK256 PUSH1 0x0 SWAP2 POP SWAP1 POP DUP1 PUSH1 0x0 ADD DUP1 SLOAD PUSH2 0x14A SWAP1 PUSH2 0x99D JUMP JUMPDEST DUP1 PUSH1 0x1F ADD PUSH1 0x20 DUP1 SWAP2 DIV MUL PUSH1 0x20 ADD PUSH1 0x40 MLOAD SWAP1 DUP2 ADD PUSH1 0x40 MSTORE DUP1 SWAP3 SWAP2 SWAP1 DUP2 DUP2 MSTORE PUSH1 0x20 ADD DUP3 DUP1 SLOAD PUSH2 0x176 SWAP1 PUSH2 0x99D JUMP JUMPDEST DUP1 ISZERO PUSH2 0x1C3 JUMPI DUP1 PUSH1 0x1F LT PUSH2 0x198 JUMPI PUSH2 0x100 DUP1 DUP4 SLOAD DIV MUL DUP4 MSTORE SWAP2 PUSH1 0x20 ADD SWAP2 PUSH2 0x1C3 JUMP JUMPDEST DUP3 ADD SWAP2 SWAP1 PUSH1 0x0 MSTORE PUSH1 0x20 PUSH1 0x0 KECCAK256 SWAP1 JUMPDEST DUP2 SLOAD DUP2 MSTORE SWAP1 PUSH1 0x1 ADD SWAP1 PUSH1 0x20 ADD DUP1 DUP4 GT PUSH2 0x1A6 JUMPI DUP3 SWAP1 SUB PUSH1 0x1F AND DUP3 ADD SWAP2 JUMPDEST POP POP POP POP POP SWAP1 DUP1 PUSH1 0x1 ADD PUSH1 0x0 SWAP1 SLOAD SWAP1 PUSH2 0x100 EXP SWAP1 DIV PUSH20 0xFFFFFFFFFFFFFFFFFFFFFFFFFFFFFFFFFFFFFFFF AND SWAP1 DUP1 PUSH1 0x2 ADD SLOAD SWAP1 POP DUP4 JUMP JUMPDEST PUSH1 0x1 DUP2 DUP2 SLOAD DUP2 LT PUSH2 0x209 JUMPI PUSH1 0x0 DUP1 REVERT JUMPDEST SWAP1 PUSH1 0x0 MSTORE PUSH1 0x20 PUSH1 0x0 KECCAK256 ADD PUSH1 0x0 SWAP2 POP SLOAD SWAP1 PUSH2 0x100 EXP SWAP1 DIV PUSH20 0xFFFFFFFFFFFFFFFFFFFFFFFFFFFFFFFFFFFFFFFF AND DUP2 JUMP JUMPDEST PUSH1 0x0 DUP1 PUSH1 0x2 SLOAD SWAP1 POP DUP1 SWAP2 POP POP SWAP1 JUMP JUMPDEST PUSH1 0x0 JUMPDEST PUSH1 0x1 DUP1 DUP1 SLOAD SWAP1 POP PUSH2 0x25B SWAP2 SWAP1 PUSH2 0x9FD JUMP JUMPDEST DUP2 GT PUSH2 0x321 JUMPI DUP3 PUSH20 0xFFFFFFFFFFFFFFFFFFFFFFFFFFFFFFFFFFFFFFFF AND PUSH1 0x1 DUP3 DUP2 SLOAD DUP2 LT PUSH2 0x28C JUMPI PUSH2 0x28B PUSH2 0xA31 JUMP JUMPDEST JUMPDEST SWAP1 PUSH1 0x0 MSTORE PUSH1 0x20 PUSH1 0x0 KECCAK256 ADD PUSH1 0x0 SWAP1 SLOAD SWAP1 PUSH2 0x100 EXP SWAP1 DIV PUSH20 0xFFFFFFFFFFFFFFFFFFFFFFFFFFFFFFFFFFFFFFFF AND PUSH20 0xFFFFFFFFFFFFFFFFFFFFFFFFFFFFFFFFFFFFFFFF AND SUB PUSH2 0x30E JUMPI PUSH32 0x844C2087BB7F3EF3B5CDBAD919F68FB5BE2647A6C9645593C60C0456E93DCE2E DUP4 PUSH1 0x40 MLOAD PUSH2 0x301 SWAP2 SWAP1 PUSH2 0xAAC JUMP JUMPDEST PUSH1 0x40 MLOAD DUP1 SWAP2 SUB SWAP1 LOG1 PUSH2 0x321 JUMP JUMPDEST DUP1 DUP1 PUSH2 0x319 SWAP1 PUSH2 0xADA JUMP JUMPDEST SWAP2 POP POP PUSH2 0x24A JUMP JUMPDEST POP PUSH8 0xDE0B6B3A7640000 CALLVALUE SUB PUSH2 0x336 JUMPI PUSH1 0x0 DUP1 REVERT JUMPDEST ADDRESS PUSH20 0xFFFFFFFFFFFFFFFFFFFFFFFFFFFFFFFFFFFFFFFF AND PUSH2 0x8FC CALLVALUE SWAP1 DUP2 ISZERO MUL SWAP1 PUSH1 0x40 MLOAD PUSH1 0x0 PUSH1 0x40 MLOAD DUP1 DUP4 SUB DUP2 DUP6 DUP9 DUP9 CALL SWAP4 POP POP POP POP ISZERO DUP1 ISZERO PUSH2 0x37C JUMPI RETURNDATASIZE PUSH1 0x0 DUP1 RETURNDATACOPY RETURNDATASIZE PUSH1 0x0 REVERT JUMPDEST POP CALLVALUE PUSH1 0x2 DUP2 SWAP1 SSTORE POP PUSH1 0x40 MLOAD DUP1 PUSH1 0x60 ADD PUSH1 0x40 MSTORE DUP1 DUP3 DUP2 MSTORE PUSH1 0x20 ADD DUP4 PUSH20 0xFFFFFFFFFFFFFFFFFFFFFFFFFFFFFFFFFFFFFFFF AND DUP2 MSTORE PUSH1 0x20 ADD PUSH1 0x2 SLOAD PUSH1 0x0 DUP1 DUP7 PUSH20 0xFFFFFFFFFFFFFFFFFFFFFFFFFFFFFFFFFFFFFFFF AND PUSH20 0xFFFFFFFFFFFFFFFFFFFFFFFFFFFFFFFFFFFFFFFF AND DUP2 MSTORE PUSH1 0x20 ADD SWAP1 DUP2 MSTORE PUSH1 0x20 ADD PUSH1 0x0 KECCAK256 PUSH1 0x2 ADD SLOAD PUSH2 0x400 SWAP2 SWAP1 PUSH2 0xB22 JUMP JUMPDEST DUP2 MSTORE POP PUSH1 0x0 DUP1 DUP5 PUSH20 0xFFFFFFFFFFFFFFFFFFFFFFFFFFFFFFFFFFFFFFFF AND PUSH20 0xFFFFFFFFFFFFFFFFFFFFFFFFFFFFFFFFFFFFFFFF AND DUP2 MSTORE PUSH1 0x20 ADD SWAP1 DUP2 MSTORE PUSH1 0x20 ADD PUSH1 0x0 KECCAK256 PUSH1 0x0 DUP3 ADD MLOAD DUP2 PUSH1 0x0 ADD SWAP1 DUP2 PUSH2 0x456 SWAP2 SWAP1 PUSH2 0xD02 JUMP JUMPDEST POP PUSH1 0x20 DUP3 ADD MLOAD DUP2 PUSH1 0x1 ADD PUSH1 0x0 PUSH2 0x100 EXP DUP2 SLOAD DUP2 PUSH20 0xFFFFFFFFFFFFFFFFFFFFFFFFFFFFFFFFFFFFFFFF MUL NOT AND SWAP1 DUP4 PUSH20 0xFFFFFFFFFFFFFFFFFFFFFFFFFFFFFFFFFFFFFFFF AND MUL OR SWAP1 SSTORE POP PUSH1 0x40 DUP3 ADD MLOAD DUP2 PUSH1 0x2 ADD SSTORE SWAP1 POP POP PUSH1 0x1 DUP3 SWAP1 DUP1 PUSH1 0x1 DUP2 SLOAD ADD DUP1 DUP3 SSTORE DUP1 SWAP2 POP POP PUSH1 0x1 SWAP1 SUB SWAP1 PUSH1 0x0 MSTORE PUSH1 0x20 PUSH1 0x0 KECCAK256 ADD PUSH1 0x0 SWAP1 SWAP2 SWAP1 SWAP2 SWAP1 SWAP2 PUSH2 0x100 EXP DUP2 SLOAD DUP2 PUSH20 0xFFFFFFFFFFFFFFFFFFFFFFFFFFFFFFFFFFFFFFFF MUL NOT AND SWAP1 DUP4 PUSH20 0xFFFFFFFFFFFFFFFFFFFFFFFFFFFFFFFFFFFFFFFF AND MUL OR SWAP1 SSTORE POP PUSH32 0x844C2087BB7F3EF3B5CDBAD919F68FB5BE2647A6C9645593C60C0456E93DCE2E DUP3 PUSH1 0x40 MLOAD PUSH2 0x53D SWAP2 SWAP1 PUSH2 0xE46 JUMP JUMPDEST PUSH1 0x40 MLOAD DUP1 SWAP2 SUB SWAP1 LOG1 POP POP JUMP JUMPDEST PUSH8 0xDE0B6B3A7640000 CALLVALUE SUB PUSH2 0x55D JUMPI PUSH1 0x0 DUP1 REVERT JUMPDEST ADDRESS PUSH20 0xFFFFFFFFFFFFFFFFFFFFFFFFFFFFFFFFFFFFFFFF AND PUSH2 0x8FC CALLVALUE SWAP1 DUP2 ISZERO MUL SWAP1 PUSH1 0x40 MLOAD PUSH1 0x0 PUSH1 0x40 MLOAD DUP1 DUP4 SUB DUP2 DUP6 DUP9 DUP9 CALL SWAP4 POP POP POP POP ISZERO DUP1 ISZERO PUSH2 0x5A3 JUMPI RETURNDATASIZE PUSH1 0x0 DUP1 RETURNDATACOPY RETURNDATASIZE PUSH1 0x0 REVERT JUMPDEST POP PUSH1 0x1 CALLVALUE PUSH2 0x5B1 SWAP2 SWAP1 PUSH2 0x9FD JUMP JUMPDEST PUSH1 0x2 DUP2 SWAP1 SSTORE POP JUMP JUMPDEST PUSH1 0x0 PUSH1 0x40 MLOAD SWAP1 POP SWAP1 JUMP JUMPDEST PUSH1 0x0 DUP1 REVERT JUMPDEST PUSH1 0x0 DUP1 REVERT JUMPDEST PUSH1 0x0 PUSH20 0xFFFFFFFFFFFFFFFFFFFFFFFFFFFFFFFFFFFFFFFF DUP3 AND SWAP1 POP SWAP2 SWAP1 POP JUMP JUMPDEST PUSH1 0x0 PUSH2 0x5F8 DUP3 PUSH2 0x5CD JUMP JUMPDEST SWAP1 POP SWAP2 SWAP1 POP JUMP JUMPDEST PUSH2 0x608 DUP2 PUSH2 0x5ED JUMP JUMPDEST DUP2 EQ PUSH2 0x613 JUMPI PUSH1 0x0 DUP1 REVERT JUMPDEST POP JUMP JUMPDEST PUSH1 0x0 DUP2 CALLDATALOAD SWAP1 POP PUSH2 0x625 DUP2 PUSH2 0x5FF JUMP JUMPDEST SWAP3 SWAP2 POP POP JUMP JUMPDEST PUSH1 0x0 PUSH1 0x20 DUP3 DUP5 SUB SLT ISZERO PUSH2 0x641 JUMPI PUSH2 0x640 PUSH2 0x5C3 JUMP JUMPDEST JUMPDEST PUSH1 0x0 PUSH2 0x64F DUP5 DUP3 DUP6 ADD PUSH2 0x616 JUMP JUMPDEST SWAP2 POP POP SWAP3 SWAP2 POP POP JUMP JUMPDEST PUSH1 0x0 DUP2 MLOAD SWAP1 POP SWAP2 SWAP1 POP JUMP JUMPDEST PUSH1 0x0 DUP3 DUP3 MSTORE PUSH1 0x20 DUP3 ADD SWAP1 POP SWAP3 SWAP2 POP POP JUMP JUMPDEST PUSH1 0x0 JUMPDEST DUP4 DUP2 LT ISZERO PUSH2 0x692 JUMPI DUP1 DUP3 ADD MLOAD DUP2 DUP5 ADD MSTORE PUSH1 0x20 DUP2 ADD SWAP1 POP PUSH2 0x677 JUMP JUMPDEST PUSH1 0x0 DUP5 DUP5 ADD MSTORE POP POP POP POP JUMP JUMPDEST PUSH1 0x0 PUSH1 0x1F NOT PUSH1 0x1F DUP4 ADD AND SWAP1 POP SWAP2 SWAP1 POP JUMP JUMPDEST PUSH1 0x0 PUSH2 0x6BA DUP3 PUSH2 0x658 JUMP JUMPDEST PUSH2 0x6C4 DUP2 DUP6 PUSH2 0x663 JUMP JUMPDEST SWAP4 POP PUSH2 0x6D4 DUP2 DUP6 PUSH1 0x20 DUP7 ADD PUSH2 0x674 JUMP JUMPDEST PUSH2 0x6DD DUP2 PUSH2 0x69E JUMP JUMPDEST DUP5 ADD SWAP2 POP POP SWAP3 SWAP2 POP POP JUMP JUMPDEST PUSH2 0x6F1 DUP2 PUSH2 0x5ED JUMP JUMPDEST DUP3 MSTORE POP POP JUMP JUMPDEST PUSH1 0x0 DUP2 SWAP1 POP SWAP2 SWAP1 POP JUMP JUMPDEST PUSH2 0x70A DUP2 PUSH2 0x6F7 JUMP JUMPDEST DUP3 MSTORE POP POP JUMP JUMPDEST PUSH1 0x0 PUSH1 0x60 DUP3 ADD SWAP1 POP DUP2 DUP2 SUB PUSH1 0x0 DUP4 ADD MSTORE PUSH2 0x72A DUP2 DUP7 PUSH2 0x6AF JUMP JUMPDEST SWAP1 POP PUSH2 0x739 PUSH1 0x20 DUP4 ADD DUP6 PUSH2 0x6E8 JUMP JUMPDEST PUSH2 0x746 PUSH1 0x40 DUP4 ADD DUP5 PUSH2 0x701 JUMP JUMPDEST SWAP5 SWAP4 POP POP POP POP JUMP JUMPDEST PUSH2 0x757 DUP2 PUSH2 0x6F7 JUMP JUMPDEST DUP2 EQ PUSH2 0x762 JUMPI PUSH1 0x0 DUP1 REVERT JUMPDEST POP JUMP JUMPDEST PUSH1 0x0 DUP2 CALLDATALOAD SWAP1 POP PUSH2 0x774 DUP2 PUSH2 0x74E JUMP JUMPDEST SWAP3 SWAP2 POP POP JUMP JUMPDEST PUSH1 0x0 PUSH1 0x20 DUP3 DUP5 SUB SLT ISZERO PUSH2 0x790 JUMPI PUSH2 0x78F PUSH2 0x5C3 JUMP JUMPDEST JUMPDEST PUSH1 0x0 PUSH2 0x79E DUP5 DUP3 DUP6 ADD PUSH2 0x765 JUMP JUMPDEST SWAP2 POP POP SWAP3 SWAP2 POP POP JUMP JUMPDEST PUSH1 0x0 PUSH1 0x20 DUP3 ADD SWAP1 POP PUSH2 0x7BC PUSH1 0x0 DUP4 ADD DUP5 PUSH2 0x6E8 JUMP JUMPDEST SWAP3 SWAP2 POP POP JUMP JUMPDEST PUSH1 0x0 PUSH1 0x20 DUP3 ADD SWAP1 POP PUSH2 0x7D7 PUSH1 0x0 DUP4 ADD DUP5 PUSH2 0x701 JUMP JUMPDEST SWAP3 SWAP2 POP POP JUMP JUMPDEST PUSH1 0x0 DUP1 REVERT JUMPDEST PUSH1 0x0 DUP1 REVERT JUMPDEST PUSH32 0x4E487B7100000000000000000000000000000000000000000000000000000000 PUSH1 0x0 MSTORE PUSH1 0x41 PUSH1 0x4 MSTORE PUSH1 0x24 PUSH1 0x0 REVERT JUMPDEST PUSH2 0x81F DUP3 PUSH2 0x69E JUMP JUMPDEST DUP2 ADD DUP2 DUP2 LT PUSH8 0xFFFFFFFFFFFFFFFF DUP3 GT OR ISZERO PUSH2 0x83E JUMPI PUSH2 0x83D PUSH2 0x7E7 JUMP JUMPDEST JUMPDEST DUP1 PUSH1 0x40 MSTORE POP POP POP JUMP JUMPDEST PUSH1 0x0 PUSH2 0x851 PUSH2 0x5B9 JUMP JUMPDEST SWAP1 POP PUSH2 0x85D DUP3 DUP3 PUSH2 0x816 JUMP JUMPDEST SWAP2 SWAP1 POP JUMP JUMPDEST PUSH1 0x0 PUSH8 0xFFFFFFFFFFFFFFFF DUP3 GT ISZERO PUSH2 0x87D JUMPI PUSH2 0x87C PUSH2 0x7E7 JUMP JUMPDEST JUMPDEST PUSH2 0x886 DUP3 PUSH2 0x69E JUMP JUMPDEST SWAP1 POP PUSH1 0x20 DUP2 ADD SWAP1 POP SWAP2 SWAP1 POP JUMP JUMPDEST DUP3 DUP2 DUP4 CALLDATACOPY PUSH1 0x0 DUP4 DUP4 ADD MSTORE POP POP POP JUMP JUMPDEST PUSH1 0x0 PUSH2 0x8B5 PUSH2 0x8B0 DUP5 PUSH2 0x862 JUMP JUMPDEST PUSH2 0x847 JUMP JUMPDEST SWAP1 POP DUP3 DUP2 MSTORE PUSH1 0x20 DUP2 ADD DUP5 DUP5 DUP5 ADD GT ISZERO PUSH2 0x8D1 JUMPI PUSH2 0x8D0 PUSH2 0x7E2 JUMP JUMPDEST JUMPDEST PUSH2 0x8DC DUP5 DUP3 DUP6 PUSH2 0x893 JUMP JUMPDEST POP SWAP4 SWAP3 POP POP POP JUMP JUMPDEST PUSH1 0x0 DUP3 PUSH1 0x1F DUP4 ADD SLT PUSH2 0x8F9 JUMPI PUSH2 0x8F8 PUSH2 0x7DD JUMP JUMPDEST JUMPDEST DUP2 CALLDATALOAD PUSH2 0x909 DUP5 DUP3 PUSH1 0x20 DUP7 ADD PUSH2 0x8A2 JUMP JUMPDEST SWAP2 POP POP SWAP3 SWAP2 POP POP JUMP JUMPDEST PUSH1 0x0 DUP1 PUSH1 0x40 DUP4 DUP6 SUB SLT ISZERO PUSH2 0x929 JUMPI PUSH2 0x928 PUSH2 0x5C3 JUMP JUMPDEST JUMPDEST PUSH1 0x0 PUSH2 0x937 DUP6 DUP3 DUP7 ADD PUSH2 0x616 JUMP JUMPDEST SWAP3 POP POP PUSH1 0x20 DUP4 ADD CALLDATALOAD PUSH8 0xFFFFFFFFFFFFFFFF DUP2 GT ISZERO PUSH2 0x958 JUMPI PUSH2 0x957 PUSH2 0x5C8 JUMP JUMPDEST JUMPDEST PUSH2 0x964 DUP6 DUP3 DUP7 ADD PUSH2 0x8E4 JUMP JUMPDEST SWAP2 POP POP SWAP3 POP SWAP3 SWAP1 POP JUMP JUMPDEST PUSH32 0x4E487B7100000000000000000000000000000000000000000000000000000000 PUSH1 0x0 MSTORE PUSH1 0x22 PUSH1 0x4 MSTORE PUSH1 0x24 PUSH1 0x0 REVERT JUMPDEST PUSH1 0x0 PUSH1 0x2 DUP3 DIV SWAP1 POP PUSH1 0x1 DUP3 AND DUP1 PUSH2 0x9B5 JUMPI PUSH1 0x7F DUP3 AND SWAP2 POP JUMPDEST PUSH1 0x20 DUP3 LT DUP2 SUB PUSH2 0x9C8 JUMPI PUSH2 0x9C7 PUSH2 0x96E JUMP JUMPDEST JUMPDEST POP SWAP2 SWAP1 POP JUMP JUMPDEST PUSH32 0x4E487B7100000000000000000000000000000000000000000000000000000000 PUSH1 0x0 MSTORE PUSH1 0x11 PUSH1 0x4 MSTORE PUSH1 0x24 PUSH1 0x0 REVERT JUMPDEST PUSH1 0x0 PUSH2 0xA08 DUP3 PUSH2 0x6F7 JUMP JUMPDEST SWAP2 POP PUSH2 0xA13 DUP4 PUSH2 0x6F7 JUMP JUMPDEST SWAP3 POP DUP3 DUP3 SUB SWAP1 POP DUP2 DUP2 GT ISZERO PUSH2 0xA2B JUMPI PUSH2 0xA2A PUSH2 0x9CE JUMP JUMPDEST JUMPDEST SWAP3 SWAP2 POP POP JUMP JUMPDEST PUSH32 0x4E487B7100000000000000000000000000000000000000000000000000000000 PUSH1 0x0 MSTORE PUSH1 0x32 PUSH1 0x4 MSTORE PUSH1 0x24 PUSH1 0x0 REVERT JUMPDEST PUSH32 0x41636F756E7420616C72656164792065786973742E2E2E000000000000000000 PUSH1 0x0 DUP3 ADD MSTORE POP JUMP JUMPDEST PUSH1 0x0 PUSH2 0xA96 PUSH1 0x17 DUP4 PUSH2 0x663 JUMP JUMPDEST SWAP2 POP PUSH2 0xAA1 DUP3 PUSH2 0xA60 JUMP JUMPDEST PUSH1 0x20 DUP3 ADD SWAP1 POP SWAP2 SWAP1 POP JUMP JUMPDEST PUSH1 0x0 PUSH1 0x40 DUP3 ADD SWAP1 POP PUSH2 0xAC1 PUSH1 0x0 DUP4 ADD DUP5 PUSH2 0x6E8 JUMP JUMPDEST DUP2 DUP2 SUB PUSH1 0x20 DUP4 ADD MSTORE PUSH2 0xAD2 DUP2 PUSH2 0xA89 JUMP JUMPDEST SWAP1 POP SWAP3 SWAP2 POP POP JUMP JUMPDEST PUSH1 0x0 PUSH2 0xAE5 DUP3 PUSH2 0x6F7 JUMP JUMPDEST SWAP2 POP PUSH32 0xFFFFFFFFFFFFFFFFFFFFFFFFFFFFFFFFFFFFFFFFFFFFFFFFFFFFFFFFFFFFFFFF DUP3 SUB PUSH2 0xB17 JUMPI PUSH2 0xB16 PUSH2 0x9CE JUMP JUMPDEST JUMPDEST PUSH1 0x1 DUP3 ADD SWAP1 POP SWAP2 SWAP1 POP JUMP JUMPDEST PUSH1 0x0 PUSH2 0xB2D DUP3 PUSH2 0x6F7 JUMP JUMPDEST SWAP2 POP PUSH2 0xB38 DUP4 PUSH2 0x6F7 JUMP JUMPDEST SWAP3 POP DUP3 DUP3 ADD SWAP1 POP DUP1 DUP3 GT ISZERO PUSH2 0xB50 JUMPI PUSH2 0xB4F PUSH2 0x9CE JUMP JUMPDEST JUMPDEST SWAP3 SWAP2 POP POP JUMP JUMPDEST PUSH1 0x0 DUP2 SWAP1 POP DUP2 PUSH1 0x0 MSTORE PUSH1 0x20 PUSH1 0x0 KECCAK256 SWAP1 POP SWAP2 SWAP1 POP JUMP JUMPDEST PUSH1 0x0 PUSH1 0x20 PUSH1 0x1F DUP4 ADD DIV SWAP1 POP SWAP2 SWAP1 POP JUMP JUMPDEST PUSH1 0x0 DUP3 DUP3 SHL SWAP1 POP SWAP3 SWAP2 POP POP JUMP JUMPDEST PUSH1 0x0 PUSH1 0x8 DUP4 MUL PUSH2 0xBB8 PUSH32 0xFFFFFFFFFFFFFFFFFFFFFFFFFFFFFFFFFFFFFFFFFFFFFFFFFFFFFFFFFFFFFFFF DUP3 PUSH2 0xB7B JUMP JUMPDEST PUSH2 0xBC2 DUP7 DUP4 PUSH2 0xB7B JUMP JUMPDEST SWAP6 POP DUP1 NOT DUP5 AND SWAP4 POP DUP1 DUP7 AND DUP5 OR SWAP3 POP POP POP SWAP4 SWAP3 POP POP POP JUMP JUMPDEST PUSH1 0x0 DUP2 SWAP1 POP SWAP2 SWAP1 POP JUMP JUMPDEST PUSH1 0x0 PUSH2 0xBFF PUSH2 0xBFA PUSH2 0xBF5 DUP5 PUSH2 0x6F7 JUMP JUMPDEST PUSH2 0xBDA JUMP JUMPDEST PUSH2 0x6F7 JUMP JUMPDEST SWAP1 POP SWAP2 SWAP1 POP JUMP JUMPDEST PUSH1 0x0 DUP2 SWAP1 POP SWAP2 SWAP1 POP JUMP JUMPDEST PUSH2 0xC19 DUP4 PUSH2 0xBE4 JUMP JUMPDEST PUSH2 0xC2D PUSH2 0xC25 DUP3 PUSH2 0xC06 JUMP JUMPDEST DUP5 DUP5 SLOAD PUSH2 0xB88 JUMP JUMPDEST DUP3 SSTORE POP POP POP POP JUMP JUMPDEST PUSH1 0x0 SWAP1 JUMP JUMPDEST PUSH2 0xC42 PUSH2 0xC35 JUMP JUMPDEST PUSH2 0xC4D DUP2 DUP5 DUP5 PUSH2 0xC10 JUMP JUMPDEST POP POP POP JUMP JUMPDEST JUMPDEST DUP2 DUP2 LT ISZERO PUSH2 0xC71 JUMPI PUSH2 0xC66 PUSH1 0x0 DUP3 PUSH2 0xC3A JUMP JUMPDEST PUSH1 0x1 DUP2 ADD SWAP1 POP PUSH2 0xC53 JUMP JUMPDEST POP POP JUMP JUMPDEST PUSH1 0x1F DUP3 GT ISZERO PUSH2 0xCB6 JUMPI PUSH2 0xC87 DUP2 PUSH2 0xB56 JUMP JUMPDEST PUSH2 0xC90 DUP5 PUSH2 0xB6B JUMP JUMPDEST DUP2 ADD PUSH1 0x20 DUP6 LT ISZERO PUSH2 0xC9F JUMPI DUP2 SWAP1 POP JUMPDEST PUSH2 0xCB3 PUSH2 0xCAB DUP6 PUSH2 0xB6B JUMP JUMPDEST DUP4 ADD DUP3 PUSH2 0xC52 JUMP JUMPDEST POP POP JUMPDEST POP POP POP JUMP JUMPDEST PUSH1 0x0 DUP3 DUP3 SHR SWAP1 POP SWAP3 SWAP2 POP POP JUMP JUMPDEST PUSH1 0x0 PUSH2 0xCD9 PUSH1 0x0 NOT DUP5 PUSH1 0x8 MUL PUSH2 0xCBB JUMP JUMPDEST NOT DUP1 DUP4 AND SWAP2 POP POP SWAP3 SWAP2 POP POP JUMP JUMPDEST PUSH1 0x0 PUSH2 0xCF2 DUP4 DUP4 PUSH2 0xCC8 JUMP JUMPDEST SWAP2 POP DUP3 PUSH1 0x2 MUL DUP3 OR SWAP1 POP SWAP3 SWAP2 POP POP JUMP JUMPDEST PUSH2 0xD0B DUP3 PUSH2 0x658 JUMP JUMPDEST PUSH8 0xFFFFFFFFFFFFFFFF DUP2 GT ISZERO PUSH2 0xD24 JUMPI PUSH2 0xD23 PUSH2 0x7E7 JUMP JUMPDEST JUMPDEST PUSH2 0xD2E DUP3 SLOAD PUSH2 0x99D JUMP JUMPDEST PUSH2 0xD39 DUP3 DUP3 DUP6 PUSH2 0xC75 JUMP JUMPDEST PUSH1 0x0 PUSH1 0x20 SWAP1 POP PUSH1 0x1F DUP4 GT PUSH1 0x1 DUP2 EQ PUSH2 0xD6C JUMPI PUSH1 0x0 DUP5 ISZERO PUSH2 0xD5A JUMPI DUP3 DUP8 ADD MLOAD SWAP1 POP JUMPDEST PUSH2 0xD64 DUP6 DUP3 PUSH2 0xCE6 JUMP JUMPDEST DUP7 SSTORE POP PUSH2 0xDCC JUMP JUMPDEST PUSH1 0x1F NOT DUP5 AND PUSH2 0xD7A DUP7 PUSH2 0xB56 JUMP JUMPDEST PUSH1 0x0 JUMPDEST DUP3 DUP2 LT ISZERO PUSH2 0xDA2 JUMPI DUP5 DUP10 ADD MLOAD DUP3 SSTORE PUSH1 0x1 DUP3 ADD SWAP2 POP PUSH1 0x20 DUP6 ADD SWAP5 POP PUSH1 0x20 DUP2 ADD SWAP1 POP PUSH2 0xD7D JUMP JUMPDEST DUP7 DUP4 LT ISZERO PUSH2 0xDBF JUMPI DUP5 DUP10 ADD MLOAD PUSH2 0xDBB PUSH1 0x1F DUP10 AND DUP3 PUSH2 0xCC8 JUMP JUMPDEST DUP4 SSTORE POP JUMPDEST PUSH1 0x1 PUSH1 0x2 DUP9 MUL ADD DUP9 SSTORE POP POP POP JUMPDEST POP POP POP POP POP POP JUMP JUMPDEST PUSH32 0x41636F756E7420486173204265656E2043726561746564205375636365737366 PUSH1 0x0 DUP3 ADD MSTORE PUSH32 0x756C6C792E2E2E00000000000000000000000000000000000000000000000000 PUSH1 0x20 DUP3 ADD MSTORE POP JUMP JUMPDEST PUSH1 0x0 PUSH2 0xE30 PUSH1 0x27 DUP4 PUSH2 0x663 JUMP JUMPDEST SWAP2 POP PUSH2 0xE3B DUP3 PUSH2 0xDD4 JUMP JUMPDEST PUSH1 0x40 DUP3 ADD SWAP1 POP SWAP2 SWAP1 POP JUMP JUMPDEST PUSH1 0x0 PUSH1 0x40 DUP3 ADD SWAP1 POP PUSH2 0xE5B PUSH1 0x0 DUP4 ADD DUP5 PUSH2 0x6E8 JUMP JUMPDEST DUP2 DUP2 SUB PUSH1 0x20 DUP4 ADD MSTORE PUSH2 0xE6C DUP2 PUSH2 0xE23 JUMP JUMPDEST SWAP1 POP SWAP3 SWAP2 POP POP JUMP INVALID LOG2 PUSH5 0x6970667358 0x22 SLT KECCAK256 0xDB PUSH2 0xB00F 0xD5 ADDRESS 0x21 0xB2 0x5F DUP10 CREATE SWAP11 0xEE 0x4D ORIGIN BASEFEE 0xCA ISZERO 0x2A STATICCALL SIGNEXTEND LOG2 PUSH24 0x978011D2D0C109294D64736F6C6343000811003300000000 "},"methodIdentifiers":{"Customer(address)":"3894d0b3","GetContractBalance()":"f6d0bf2f","GetMyBal()":"60ebb94e","OpeningAccount(address,string)":"b27c51d5","userarray(uint256)":"409d25fd"}}}}}