{
  "_format": "hh-sol-artifact-1",
  "contractName": "CryptoWallet",
  "sourceName": "contracts/CryptoWallet.sol",
  "abi": [
    {
      "anonymous": false,
      "inputs": [
        {
          "indexed": false,
          "internalType": "address",
          "name": "useraddress",
          "type": "address"
        },
        {
          "indexed": false,
          "internalType": "string",
          "name": "message",
          "type": "string"
        }
      ],
      "name": "AlertMsg",
      "type": "event"
    },
    {
      "inputs": [
        {
          "internalType": "address",
          "name": "",
          "type": "address"
        }
      ],
      "name": "Customer",
      "outputs": [
        {
          "internalType": "string",
          "name": "name",
          "type": "string"
        },
        {
          "internalType": "address",
          "name": "useraddress",
          "type": "address"
        },
        {
          "internalType": "uint256",
          "name": "saving_amount",
          "type": "uint256"
        }
      ],
      "stateMutability": "view",
      "type": "function"
    },
    {
      "inputs": [
        {
          "internalType": "address",
          "name": "user",
          "type": "address"
        }
      ],
      "name": "GetAccount",
      "outputs": [
        {
          "components": [
            {
              "internalType": "string",
              "name": "name",
              "type": "string"
            },
            {
              "internalType": "address",
              "name": "useraddress",
              "type": "address"
            },
            {
              "internalType": "uint256",
              "name": "saving_amount",
              "type": "uint256"
            }
          ],
          "internalType": "struct User.UserDeatails",
          "name": "ud",
          "type": "tuple"
        }
      ],
      "stateMutability": "view",
      "type": "function"
    },
    {
      "inputs": [],
      "name": "GetContractBalance",
      "outputs": [],
      "stateMutability": "payable",
      "type": "function"
    },
    {
      "inputs": [],
      "name": "GetMyBal",
      "outputs": [
        {
          "internalType": "uint256",
          "name": "",
          "type": "uint256"
        }
      ],
      "stateMutability": "view",
      "type": "function"
    },
    {
      "inputs": [
        {
          "internalType": "address",
          "name": "user",
          "type": "address"
        },
        {
          "internalType": "string",
          "name": "name_",
          "type": "string"
        }
      ],
      "name": "OpeningAccount",
      "outputs": [],
      "stateMutability": "payable",
      "type": "function"
    },
    {
      "inputs": [
        {
          "internalType": "uint256",
          "name": "",
          "type": "uint256"
        }
      ],
      "name": "userarray",
      "outputs": [
        {
          "internalType": "address",
          "name": "",
          "type": "address"
        }
      ],
      "stateMutability": "view",
      "type": "function"
    },
    {
      "stateMutability": "payable",
      "type": "receive"
    }
  ],
  "bytecode": "0x608060405234801561001057600080fd5b506110b3806100206000396000f3fe6080604052600436106100595760003560e01c80633894d0b314610065578063409d25fd146100a457806360ebb94e146100e1578063b27c51d51461010c578063d367414814610128578063f6d0bf2f1461016557610060565b3661006057005b600080fd5b34801561007157600080fd5b5061008c6004803603810190610087919061084b565b61016f565b60405161009b93929190610930565b60405180910390f35b3480156100b057600080fd5b506100cb60048036038101906100c6919061099a565b610241565b6040516100d891906109c7565b60405180910390f35b3480156100ed57600080fd5b506100f6610280565b60405161010391906109e2565b60405180910390f35b61012660048036038101906101219190610b32565b61028f565b005b34801561013457600080fd5b5061014f600480360381019061014a919061084b565b61054f565b60405161015c9190610c46565b60405180910390f35b61016d610732565b005b600060205280600052604060002060009150905080600001805461019290610c97565b80601f01602080910402602001604051908101604052809291908181526020018280546101be90610c97565b801561020b5780601f106101e05761010080835404028352916020019161020b565b820191906000526020600020905b8154815290600101906020018083116101ee57829003601f168201915b5050505050908060010160009054906101000a900473ffffffffffffffffffffffffffffffffffffffff16908060020154905083565b6001818154811061025157600080fd5b906000526020600020016000915054906101000a900473ffffffffffffffffffffffffffffffffffffffff1681565b60008060025490508091505090565b8173ffffffffffffffffffffffffffffffffffffffff166000808473ffffffffffffffffffffffffffffffffffffffff1673ffffffffffffffffffffffffffffffffffffffff16815260200190815260200160002060010160009054906101000a900473ffffffffffffffffffffffffffffffffffffffff1673ffffffffffffffffffffffffffffffffffffffff160361032857600080fd5b670de0b6b3a7640000340361033c57600080fd5b3073ffffffffffffffffffffffffffffffffffffffff166108fc349081150290604051600060405180830381858888f19350505050158015610382573d6000803e3d6000fd5b503460028190555060405180606001604052808281526020018373ffffffffffffffffffffffffffffffffffffffff1681526020016002546000808673ffffffffffffffffffffffffffffffffffffffff1673ffffffffffffffffffffffffffffffffffffffff168152602001908152602001600020600201546104069190610cf7565b8152506000808473ffffffffffffffffffffffffffffffffffffffff1673ffffffffffffffffffffffffffffffffffffffff168152602001908152602001600020600082015181600001908161045c9190610ed7565b5060208201518160010160006101000a81548173ffffffffffffffffffffffffffffffffffffffff021916908373ffffffffffffffffffffffffffffffffffffffff160217905550604082015181600201559050506001829080600181540180825580915050600190039060005260206000200160009091909190916101000a81548173ffffffffffffffffffffffffffffffffffffffff021916908373ffffffffffffffffffffffffffffffffffffffff1602179055507f844c2087bb7f3ef3b5cdbad919f68fb5be2647a6c9645593c60c0456e93dce2e82604051610543919061101b565b60405180910390a15050565b6105576107a2565b8173ffffffffffffffffffffffffffffffffffffffff166000808473ffffffffffffffffffffffffffffffffffffffff1673ffffffffffffffffffffffffffffffffffffffff16815260200190815260200160002060010160009054906101000a900473ffffffffffffffffffffffffffffffffffffffff1673ffffffffffffffffffffffffffffffffffffffff16146105f057600080fd5b6000808373ffffffffffffffffffffffffffffffffffffffff1673ffffffffffffffffffffffffffffffffffffffff16815260200190815260200160002060405180606001604052908160008201805461064990610c97565b80601f016020809104026020016040519081016040528092919081815260200182805461067590610c97565b80156106c25780601f10610697576101008083540402835291602001916106c2565b820191906000526020600020905b8154815290600101906020018083116106a557829003601f168201915b505050505081526020016001820160009054906101000a900473ffffffffffffffffffffffffffffffffffffffff1673ffffffffffffffffffffffffffffffffffffffff1673ffffffffffffffffffffffffffffffffffffffff1681526020016002820154815250509050919050565b670de0b6b3a7640000340361074657600080fd5b3073ffffffffffffffffffffffffffffffffffffffff166108fc349081150290604051600060405180830381858888f1935050505015801561078c573d6000803e3d6000fd5b5060013461079a9190611049565b600281905550565b604051806060016040528060608152602001600073ffffffffffffffffffffffffffffffffffffffff168152602001600081525090565b6000604051905090565b600080fd5b600080fd5b600073ffffffffffffffffffffffffffffffffffffffff82169050919050565b6000610818826107ed565b9050919050565b6108288161080d565b811461083357600080fd5b50565b6000813590506108458161081f565b92915050565b600060208284031215610861576108606107e3565b5b600061086f84828501610836565b91505092915050565b600081519050919050565b600082825260208201905092915050565b60005b838110156108b2578082015181840152602081019050610897565b60008484015250505050565b6000601f19601f8301169050919050565b60006108da82610878565b6108e48185610883565b93506108f4818560208601610894565b6108fd816108be565b840191505092915050565b6109118161080d565b82525050565b6000819050919050565b61092a81610917565b82525050565b6000606082019050818103600083015261094a81866108cf565b90506109596020830185610908565b6109666040830184610921565b949350505050565b61097781610917565b811461098257600080fd5b50565b6000813590506109948161096e565b92915050565b6000602082840312156109b0576109af6107e3565b5b60006109be84828501610985565b91505092915050565b60006020820190506109dc6000830184610908565b92915050565b60006020820190506109f76000830184610921565b92915050565b600080fd5b600080fd5b7f4e487b7100000000000000000000000000000000000000000000000000000000600052604160045260246000fd5b610a3f826108be565b810181811067ffffffffffffffff82111715610a5e57610a5d610a07565b5b80604052505050565b6000610a716107d9565b9050610a7d8282610a36565b919050565b600067ffffffffffffffff821115610a9d57610a9c610a07565b5b610aa6826108be565b9050602081019050919050565b82818337600083830152505050565b6000610ad5610ad084610a82565b610a67565b905082815260208101848484011115610af157610af0610a02565b5b610afc848285610ab3565b509392505050565b600082601f830112610b1957610b186109fd565b5b8135610b29848260208601610ac2565b91505092915050565b60008060408385031215610b4957610b486107e3565b5b6000610b5785828601610836565b925050602083013567ffffffffffffffff811115610b7857610b776107e8565b5b610b8485828601610b04565b9150509250929050565b600082825260208201905092915050565b6000610baa82610878565b610bb48185610b8e565b9350610bc4818560208601610894565b610bcd816108be565b840191505092915050565b610be18161080d565b82525050565b610bf081610917565b82525050565b60006060830160008301518482036000860152610c138282610b9f565b9150506020830151610c286020860182610bd8565b506040830151610c3b6040860182610be7565b508091505092915050565b60006020820190508181036000830152610c608184610bf6565b905092915050565b7f4e487b7100000000000000000000000000000000000000000000000000000000600052602260045260246000fd5b60006002820490506001821680610caf57607f821691505b602082108103610cc257610cc1610c68565b5b50919050565b7f4e487b7100000000000000000000000000000000000000000000000000000000600052601160045260246000fd5b6000610d0282610917565b9150610d0d83610917565b9250828201905080821115610d2557610d24610cc8565b5b92915050565b60008190508160005260206000209050919050565b60006020601f8301049050919050565b600082821b905092915050565b600060088302610d8d7fffffffffffffffffffffffffffffffffffffffffffffffffffffffffffffffff82610d50565b610d978683610d50565b95508019841693508086168417925050509392505050565b6000819050919050565b6000610dd4610dcf610dca84610917565b610daf565b610917565b9050919050565b6000819050919050565b610dee83610db9565b610e02610dfa82610ddb565b848454610d5d565b825550505050565b600090565b610e17610e0a565b610e22818484610de5565b505050565b5b81811015610e4657610e3b600082610e0f565b600181019050610e28565b5050565b601f821115610e8b57610e5c81610d2b565b610e6584610d40565b81016020851015610e74578190505b610e88610e8085610d40565b830182610e27565b50505b505050565b600082821c905092915050565b6000610eae60001984600802610e90565b1980831691505092915050565b6000610ec78383610e9d565b9150826002028217905092915050565b610ee082610878565b67ffffffffffffffff811115610ef957610ef8610a07565b5b610f038254610c97565b610f0e828285610e4a565b600060209050601f831160018114610f415760008415610f2f578287015190505b610f398582610ebb565b865550610fa1565b601f198416610f4f86610d2b565b60005b82811015610f7757848901518255600182019150602085019450602081019050610f52565b86831015610f945784890151610f90601f891682610e9d565b8355505b6001600288020188555050505b505050505050565b7f41636f756e7420486173204265656e204372656174656420537563636573736660008201527f756c6c792e2e2e00000000000000000000000000000000000000000000000000602082015250565b6000611005602783610883565b915061101082610fa9565b604082019050919050565b60006040820190506110306000830184610908565b818103602083015261104181610ff8565b905092915050565b600061105482610917565b915061105f83610917565b925082820390508181111561107757611076610cc8565b5b9291505056fea264697066735822122083b98e84cb3faf42278bf9ef704ff8497ee7e9a573bc407cc7aaad1a47eaa39564736f6c63430008110033",
  "linkReferences": {},
  "deployedLinkReferences": {}
}