{
  "_format": "hh-sol-artifact-1",
  "contractName": "CryptoWallet",
  "sourceName": "contracts/CryptoWallet.sol",
  "abi": [
    {
      "inputs": [],
      "stateMutability": "nonpayable",
      "type": "constructor"
    },
    {
      "anonymous": false,
      "inputs": [
        {
          "indexed": false,
          "internalType": "address",
          "name": "useraddress",
          "type": "address"
        },
        {
          "indexed": false,
          "internalType": "bool",
          "name": "flag",
          "type": "bool"
        },
        {
          "indexed": false,
          "internalType": "string",
          "name": "message",
          "type": "string"
        }
      ],
      "name": "AlertMsg",
      "type": "event"
    },
    {
      "inputs": [],
      "name": "AccountBalance",
      "outputs": [
        {
          "internalType": "uint256",
          "name": "",
          "type": "uint256"
        }
      ],
      "stateMutability": "view",
      "type": "function"
    },
    {
      "inputs": [
        {
          "internalType": "address",
          "name": "",
          "type": "address"
        }
      ],
      "name": "Customer",
      "outputs": [
        {
          "internalType": "string",
          "name": "name",
          "type": "string"
        },
        {
          "internalType": "address",
          "name": "useraddress",
          "type": "address"
        },
        {
          "internalType": "uint256",
          "name": "saving_amount",
          "type": "uint256"
        }
      ],
      "stateMutability": "view",
      "type": "function"
    },
    {
      "inputs": [],
      "name": "DepositeAmount",
      "outputs": [],
      "stateMutability": "payable",
      "type": "function"
    },
    {
      "inputs": [
        {
          "internalType": "address",
          "name": "user",
          "type": "address"
        }
      ],
      "name": "GetAccount",
      "outputs": [
        {
          "components": [
            {
              "internalType": "string",
              "name": "name",
              "type": "string"
            },
            {
              "internalType": "address",
              "name": "useraddress",
              "type": "address"
            },
            {
              "internalType": "uint256",
              "name": "saving_amount",
              "type": "uint256"
            }
          ],
          "internalType": "struct User.UserDeatails",
          "name": "acc",
          "type": "tuple"
        }
      ],
      "stateMutability": "view",
      "type": "function"
    },
    {
      "inputs": [],
      "name": "GetContractBalance",
      "outputs": [
        {
          "internalType": "uint256",
          "name": "",
          "type": "uint256"
        }
      ],
      "stateMutability": "view",
      "type": "function"
    },
    {
      "inputs": [
        {
          "internalType": "address",
          "name": "user",
          "type": "address"
        },
        {
          "internalType": "string",
          "name": "name_",
          "type": "string"
        }
      ],
      "name": "OpeningAccount",
      "outputs": [],
      "stateMutability": "payable",
      "type": "function"
    },
    {
      "inputs": [
        {
          "internalType": "address",
          "name": "user",
          "type": "address"
        }
      ],
      "name": "VisitAccount",
      "outputs": [
        {
          "components": [
            {
              "internalType": "string",
              "name": "name",
              "type": "string"
            },
            {
              "internalType": "address",
              "name": "useraddress",
              "type": "address"
            },
            {
              "internalType": "uint256",
              "name": "saving_amount",
              "type": "uint256"
            }
          ],
          "internalType": "struct User.UserDeatails",
          "name": "myaccount",
          "type": "tuple"
        }
      ],
      "stateMutability": "nonpayable",
      "type": "function"
    },
    {
      "inputs": [
        {
          "internalType": "uint256",
          "name": "amount",
          "type": "uint256"
        }
      ],
      "name": "WithDraw",
      "outputs": [],
      "stateMutability": "payable",
      "type": "function"
    },
    {
      "inputs": [],
      "name": "owner",
      "outputs": [
        {
          "internalType": "address",
          "name": "",
          "type": "address"
        }
      ],
      "stateMutability": "view",
      "type": "function"
    },
    {
      "inputs": [
        {
          "internalType": "uint256",
          "name": "",
          "type": "uint256"
        }
      ],
      "name": "userarray",
      "outputs": [
        {
          "internalType": "address",
          "name": "",
          "type": "address"
        }
      ],
      "stateMutability": "view",
      "type": "function"
    },
    {
      "stateMutability": "payable",
      "type": "receive"
    }
  ],
  "bytecode": "0x608060405234801561001057600080fd5b5033600260006101000a81548173ffffffffffffffffffffffffffffffffffffffff021916908373ffffffffffffffffffffffffffffffffffffffff160217905550611ccc806100616000396000f3fe6080604052600436106100955760003560e01c8063a9e0fb9911610059578063a9e0fb991461017d578063b27c51d5146101ba578063cbe159bb146101d6578063d3674148146101f2578063f6d0bf2f1461022f5761009c565b80633894d0b3146100a1578063409d25fd146100e057806370e7733e1461011d57806377c3ef3d146101275780638da5cb5b146101525761009c565b3661009c57005b600080fd5b3480156100ad57600080fd5b506100c860048036038101906100c3919061105e565b61025a565b6040516100d793929190611143565b60405180910390f35b3480156100ec57600080fd5b50610107600480360381019061010291906111ad565b61032c565b60405161011491906111da565b60405180910390f35b61012561036b565b005b34801561013357600080fd5b5061013c61057c565b60405161014991906111f5565b60405180910390f35b34801561015e57600080fd5b5061016761059b565b60405161017491906111da565b60405180910390f35b34801561018957600080fd5b506101a4600480360381019061019f919061105e565b6105c1565b6040516101b191906112c8565b60405180910390f35b6101d460048036038101906101cf919061141f565b6107de565b005b6101f060048036038101906101eb91906111ad565b610ad1565b005b3480156101fe57600080fd5b506102196004803603810190610214919061105e565b610dca565b60405161022691906112c8565b60405180910390f35b34801561023b57600080fd5b50610244610fad565b60405161025191906111f5565b60405180910390f35b600060205280600052604060002060009150905080600001805461027d906114aa565b80601f01602080910402602001604051908101604052809291908181526020018280546102a9906114aa565b80156102f65780601f106102cb576101008083540402835291602001916102f6565b820191906000526020600020905b8154815290600101906020018083116102d957829003601f168201915b5050505050908060010160009054906101000a900473ffffffffffffffffffffffffffffffffffffffff16908060020154905083565b6001818154811061033c57600080fd5b906000526020600020016000915054906101000a900473ffffffffffffffffffffffffffffffffffffffff1681565b600a34101561037957600080fd5b60003073ffffffffffffffffffffffffffffffffffffffff166108fc349081150290604051600060405180830381858888f193505050501580156103c1573d6000803e3d6000fd5b50600034905060005b600180805490506103db919061150a565b81116104ab573373ffffffffffffffffffffffffffffffffffffffff166001828154811061040c5761040b61153e565b5b9060005260206000200160009054906101000a900473ffffffffffffffffffffffffffffffffffffffff1673ffffffffffffffffffffffffffffffffffffffff160361049857600181815481106104665761046561153e565b5b9060005260206000200160009054906101000a900473ffffffffffffffffffffffffffffffffffffffff1692506104ab565b80806104a39061156d565b9150506103ca565b50806000808473ffffffffffffffffffffffffffffffffffffffff1673ffffffffffffffffffffffffffffffffffffffff168152602001908152602001600020600201546104f991906115b5565b6000808473ffffffffffffffffffffffffffffffffffffffff1673ffffffffffffffffffffffffffffffffffffffff168152602001908152602001600020600201819055507f5a59cb1a35b8573e520c29b67d6511660a22e17b023b5cbc7f67b17288b2392c826001604051610570929190611676565b60405180910390a15050565b60003373ffffffffffffffffffffffffffffffffffffffff1631905090565b600260009054906101000a900473ffffffffffffffffffffffffffffffffffffffff1681565b6105c9610fb5565b8173ffffffffffffffffffffffffffffffffffffffff166000808473ffffffffffffffffffffffffffffffffffffffff1673ffffffffffffffffffffffffffffffffffffffff16815260200190815260200160002060010160009054906101000a900473ffffffffffffffffffffffffffffffffffffffff1673ffffffffffffffffffffffffffffffffffffffff161461066257600080fd5b6000808373ffffffffffffffffffffffffffffffffffffffff1673ffffffffffffffffffffffffffffffffffffffff1681526020019081526020016000206040518060600160405290816000820180546106bb906114aa565b80601f01602080910402602001604051908101604052809291908181526020018280546106e7906114aa565b80156107345780601f1061070957610100808354040283529160200191610734565b820191906000526020600020905b81548152906001019060200180831161071757829003601f168201915b505050505081526020016001820160009054906101000a900473ffffffffffffffffffffffffffffffffffffffff1673ffffffffffffffffffffffffffffffffffffffff1673ffffffffffffffffffffffffffffffffffffffff16815260200160028201548152505090507f5a59cb1a35b8573e520c29b67d6511660a22e17b023b5cbc7f67b17288b2392c8260016040516107d1929190611724565b60405180910390a1919050565b3373ffffffffffffffffffffffffffffffffffffffff166000803373ffffffffffffffffffffffffffffffffffffffff1673ffffffffffffffffffffffffffffffffffffffff16815260200190815260200160002060010160009054906101000a900473ffffffffffffffffffffffffffffffffffffffff1673ffffffffffffffffffffffffffffffffffffffff160361087757600080fd5b600a341461088457600080fd5b3073ffffffffffffffffffffffffffffffffffffffff166108fc349081150290604051600060405180830381858888f193505050501580156108ca573d6000803e3d6000fd5b507f5a59cb1a35b8573e520c29b67d6511660a22e17b023b5cbc7f67b17288b2392c3060016040516108fd9291906117d2565b60405180910390a1600034905060405180606001604052808381526020018473ffffffffffffffffffffffffffffffffffffffff168152602001826000808773ffffffffffffffffffffffffffffffffffffffff1673ffffffffffffffffffffffffffffffffffffffff1681526020019081526020016000206002015461098491906115b5565b8152506000808573ffffffffffffffffffffffffffffffffffffffff1673ffffffffffffffffffffffffffffffffffffffff16815260200190815260200160002060008201518160000190816109da91906119ba565b5060208201518160010160006101000a81548173ffffffffffffffffffffffffffffffffffffffff021916908373ffffffffffffffffffffffffffffffffffffffff160217905550604082015181600201559050506001839080600181540180825580915050600190039060005260206000200160009091909190916101000a81548173ffffffffffffffffffffffffffffffffffffffff021916908373ffffffffffffffffffffffffffffffffffffffff1602179055507f5a59cb1a35b8573e520c29b67d6511660a22e17b023b5cbc7f67b17288b2392c836001604051610ac4929190611afe565b60405180910390a1505050565b600080600090505b60018080549050610aea919061150a565b8111610bba573373ffffffffffffffffffffffffffffffffffffffff1660018281548110610b1b57610b1a61153e565b5b9060005260206000200160009054906101000a900473ffffffffffffffffffffffffffffffffffffffff1673ffffffffffffffffffffffffffffffffffffffff1603610ba75760018181548110610b7557610b7461153e565b5b9060005260206000200160009054906101000a900473ffffffffffffffffffffffffffffffffffffffff169150610bba565b8080610bb29061156d565b915050610ad9565b506000808273ffffffffffffffffffffffffffffffffffffffff1673ffffffffffffffffffffffffffffffffffffffff16815260200190815260200160002060020154821115610c0957600080fd5b816000808373ffffffffffffffffffffffffffffffffffffffff1673ffffffffffffffffffffffffffffffffffffffff16815260200190815260200160002060020154610c56919061150a565b6000808373ffffffffffffffffffffffffffffffffffffffff1673ffffffffffffffffffffffffffffffffffffffff1681526020019081526020016000206002018190555047821115610ca857600080fd5b60008247610cb6919061150a565b90503073ffffffffffffffffffffffffffffffffffffffff166108fc829081150290604051600060405180830381858888f19350505050158015610cfe573d6000803e3d6000fd5b507f5a59cb1a35b8573e520c29b67d6511660a22e17b023b5cbc7f67b17288b2392c306001604051610d31929190611bac565b60405180910390a18173ffffffffffffffffffffffffffffffffffffffff166108fc8247610d5f919061150a565b9081150290604051600060405180830381858888f19350505050158015610d8a573d6000803e3d6000fd5b507f5a59cb1a35b8573e520c29b67d6511660a22e17b023b5cbc7f67b17288b2392c826001604051610dbd929190611c5a565b60405180910390a1505050565b610dd2610fb5565b8173ffffffffffffffffffffffffffffffffffffffff166000808473ffffffffffffffffffffffffffffffffffffffff1673ffffffffffffffffffffffffffffffffffffffff16815260200190815260200160002060010160009054906101000a900473ffffffffffffffffffffffffffffffffffffffff1673ffffffffffffffffffffffffffffffffffffffff1614610e6b57600080fd5b6000808373ffffffffffffffffffffffffffffffffffffffff1673ffffffffffffffffffffffffffffffffffffffff168152602001908152602001600020604051806060016040529081600082018054610ec4906114aa565b80601f0160208091040260200160405190810160405280929190818152602001828054610ef0906114aa565b8015610f3d5780601f10610f1257610100808354040283529160200191610f3d565b820191906000526020600020905b815481529060010190602001808311610f2057829003601f168201915b505050505081526020016001820160009054906101000a900473ffffffffffffffffffffffffffffffffffffffff1673ffffffffffffffffffffffffffffffffffffffff1673ffffffffffffffffffffffffffffffffffffffff1681526020016002820154815250509050919050565b600047905090565b604051806060016040528060608152602001600073ffffffffffffffffffffffffffffffffffffffff168152602001600081525090565b6000604051905090565b600080fd5b600080fd5b600073ffffffffffffffffffffffffffffffffffffffff82169050919050565b600061102b82611000565b9050919050565b61103b81611020565b811461104657600080fd5b50565b60008135905061105881611032565b92915050565b60006020828403121561107457611073610ff6565b5b600061108284828501611049565b91505092915050565b600081519050919050565b600082825260208201905092915050565b60005b838110156110c55780820151818401526020810190506110aa565b60008484015250505050565b6000601f19601f8301169050919050565b60006110ed8261108b565b6110f78185611096565b93506111078185602086016110a7565b611110816110d1565b840191505092915050565b61112481611020565b82525050565b6000819050919050565b61113d8161112a565b82525050565b6000606082019050818103600083015261115d81866110e2565b905061116c602083018561111b565b6111796040830184611134565b949350505050565b61118a8161112a565b811461119557600080fd5b50565b6000813590506111a781611181565b92915050565b6000602082840312156111c3576111c2610ff6565b5b60006111d184828501611198565b91505092915050565b60006020820190506111ef600083018461111b565b92915050565b600060208201905061120a6000830184611134565b92915050565b600082825260208201905092915050565b600061122c8261108b565b6112368185611210565b93506112468185602086016110a7565b61124f816110d1565b840191505092915050565b61126381611020565b82525050565b6112728161112a565b82525050565b600060608301600083015184820360008601526112958282611221565b91505060208301516112aa602086018261125a565b5060408301516112bd6040860182611269565b508091505092915050565b600060208201905081810360008301526112e28184611278565b905092915050565b600080fd5b600080fd5b7f4e487b7100000000000000000000000000000000000000000000000000000000600052604160045260246000fd5b61132c826110d1565b810181811067ffffffffffffffff8211171561134b5761134a6112f4565b5b80604052505050565b600061135e610fec565b905061136a8282611323565b919050565b600067ffffffffffffffff82111561138a576113896112f4565b5b611393826110d1565b9050602081019050919050565b82818337600083830152505050565b60006113c26113bd8461136f565b611354565b9050828152602081018484840111156113de576113dd6112ef565b5b6113e98482856113a0565b509392505050565b600082601f830112611406576114056112ea565b5b81356114168482602086016113af565b91505092915050565b6000806040838503121561143657611435610ff6565b5b600061144485828601611049565b925050602083013567ffffffffffffffff81111561146557611464610ffb565b5b611471858286016113f1565b9150509250929050565b7f4e487b7100000000000000000000000000000000000000000000000000000000600052602260045260246000fd5b600060028204905060018216806114c257607f821691505b6020821081036114d5576114d461147b565b5b50919050565b7f4e487b7100000000000000000000000000000000000000000000000000000000600052601160045260246000fd5b60006115158261112a565b91506115208361112a565b9250828203905081811115611538576115376114db565b5b92915050565b7f4e487b7100000000000000000000000000000000000000000000000000000000600052603260045260246000fd5b60006115788261112a565b91507fffffffffffffffffffffffffffffffffffffffffffffffffffffffffffffffff82036115aa576115a96114db565b5b600182019050919050565b60006115c08261112a565b91506115cb8361112a565b92508282019050808211156115e3576115e26114db565b5b92915050565b60008115159050919050565b6115fe816115e9565b82525050565b7f416d6f757420686173206265656e20637265646974656420737563636573736660008201527f756c6c792e2e2e00000000000000000000000000000000000000000000000000602082015250565b6000611660602783611096565b915061166b82611604565b604082019050919050565b600060608201905061168b600083018561111b565b61169860208301846115f5565b81810360408301526116a981611653565b90509392505050565b7f41636f756e7420486173204265656e20666f756e64205375636365737366756c60008201527f6c792e2e2e000000000000000000000000000000000000000000000000000000602082015250565b600061170e602583611096565b9150611719826116b2565b604082019050919050565b6000606082019050611739600083018561111b565b61174660208301846115f5565b818103604083015261175781611701565b90509392505050565b7f596f757220616d6f756e7420686173206265656e206465626974656420746f2060008201527f7468652062616e6b206163636f756e7400000000000000000000000000000000602082015250565b60006117bc603083611096565b91506117c782611760565b604082019050919050565b60006060820190506117e7600083018561111b565b6117f460208301846115f5565b8181036040830152611805816117af565b90509392505050565b60008190508160005260206000209050919050565b60006020601f8301049050919050565b600082821b905092915050565b6000600883026118707fffffffffffffffffffffffffffffffffffffffffffffffffffffffffffffffff82611833565b61187a8683611833565b95508019841693508086168417925050509392505050565b6000819050919050565b60006118b76118b26118ad8461112a565b611892565b61112a565b9050919050565b6000819050919050565b6118d18361189c565b6118e56118dd826118be565b848454611840565b825550505050565b600090565b6118fa6118ed565b6119058184846118c8565b505050565b5b818110156119295761191e6000826118f2565b60018101905061190b565b5050565b601f82111561196e5761193f8161180e565b61194884611823565b81016020851015611957578190505b61196b61196385611823565b83018261190a565b50505b505050565b600082821c905092915050565b600061199160001984600802611973565b1980831691505092915050565b60006119aa8383611980565b9150826002028217905092915050565b6119c38261108b565b67ffffffffffffffff8111156119dc576119db6112f4565b5b6119e682546114aa565b6119f182828561192d565b600060209050601f831160018114611a245760008415611a12578287015190505b611a1c858261199e565b865550611a84565b601f198416611a328661180e565b60005b82811015611a5a57848901518255600182019150602085019450602081019050611a35565b86831015611a775784890151611a73601f891682611980565b8355505b6001600288020188555050505b505050505050565b7f41636f756e7420486173204265656e204372656174656420537563636573736660008201527f756c6c792e2e2e00000000000000000000000000000000000000000000000000602082015250565b6000611ae8602783611096565b9150611af382611a8c565b604082019050919050565b6000606082019050611b13600083018561111b565b611b2060208301846115f5565b8181036040830152611b3181611adb565b90509392505050565b7f416d6f756e7420686173206265656e2064656475637465642066726f6d20746860008201527f6520436f6e74726163742e2e2e00000000000000000000000000000000000000602082015250565b6000611b96602d83611096565b9150611ba182611b3a565b604082019050919050565b6000606082019050611bc1600083018561111b565b611bce60208301846115f5565b8181036040830152611bdf81611b89565b90509392505050565b7f416d6f756e74206861732073756363657366756c6c79206265656e207769746860008201527f647261776c20746f20796f7572206163636f756e742e2e2e0000000000000000602082015250565b6000611c44603883611096565b9150611c4f82611be8565b604082019050919050565b6000606082019050611c6f600083018561111b565b611c7c60208301846115f5565b8181036040830152611c8d81611c37565b9050939250505056fea2646970667358221220c9e8ab54971b0565bbdbe966e316775aa529ec730d07b952f3b1a869bd52dc3b64736f6c63430008110033",
  "linkReferences": {},
  "deployedLinkReferences": {}
}