{
  "_format": "hh-sol-artifact-1",
  "contractName": "CryptoWallet",
  "sourceName": "contracts/CryptoWallet.sol",
  "abi": [
    {
      "anonymous": false,
      "inputs": [
        {
          "indexed": false,
          "internalType": "address",
          "name": "useraddress",
          "type": "address"
        },
        {
          "indexed": false,
          "internalType": "string",
          "name": "message",
          "type": "string"
        }
      ],
      "name": "AlertMsg",
      "type": "event"
    },
    {
      "inputs": [],
      "name": "AccountBalance",
      "outputs": [
        {
          "internalType": "uint256",
          "name": "",
          "type": "uint256"
        }
      ],
      "stateMutability": "view",
      "type": "function"
    },
    {
      "inputs": [
        {
          "internalType": "address",
          "name": "",
          "type": "address"
        }
      ],
      "name": "Customer",
      "outputs": [
        {
          "internalType": "string",
          "name": "name",
          "type": "string"
        },
        {
          "internalType": "address",
          "name": "useraddress",
          "type": "address"
        },
        {
          "internalType": "uint256",
          "name": "saving_amount",
          "type": "uint256"
        }
      ],
      "stateMutability": "view",
      "type": "function"
    },
    {
      "inputs": [],
      "name": "DebitAmount",
      "outputs": [],
      "stateMutability": "payable",
      "type": "function"
    },
    {
      "inputs": [],
      "name": "DepositeAmount",
      "outputs": [],
      "stateMutability": "payable",
      "type": "function"
    },
    {
      "inputs": [
        {
          "internalType": "address",
          "name": "user",
          "type": "address"
        }
      ],
      "name": "GetAccount",
      "outputs": [
        {
          "components": [
            {
              "internalType": "string",
              "name": "name",
              "type": "string"
            },
            {
              "internalType": "address",
              "name": "useraddress",
              "type": "address"
            },
            {
              "internalType": "uint256",
              "name": "saving_amount",
              "type": "uint256"
            }
          ],
          "internalType": "struct User.UserDeatails",
          "name": "ud",
          "type": "tuple"
        }
      ],
      "stateMutability": "view",
      "type": "function"
    },
    {
      "inputs": [],
      "name": "GetContractBalance",
      "outputs": [
        {
          "internalType": "uint256",
          "name": "",
          "type": "uint256"
        }
      ],
      "stateMutability": "view",
      "type": "function"
    },
    {
      "inputs": [
        {
          "internalType": "address",
          "name": "user",
          "type": "address"
        },
        {
          "internalType": "string",
          "name": "name_",
          "type": "string"
        }
      ],
      "name": "OpeningAccount",
      "outputs": [],
      "stateMutability": "payable",
      "type": "function"
    },
    {
      "inputs": [
        {
          "internalType": "uint256",
          "name": "",
          "type": "uint256"
        }
      ],
      "name": "userarray",
      "outputs": [
        {
          "internalType": "address",
          "name": "",
          "type": "address"
        }
      ],
      "stateMutability": "view",
      "type": "function"
    },
    {
      "stateMutability": "payable",
      "type": "receive"
    }
  ],
  "bytecode": "0x608060405234801561001057600080fd5b50611553806100206000396000f3fe60806040526004361061007f5760003560e01c8063b27c51d51161004e578063b27c51d51461013c578063d367414814610158578063ec5cf93914610195578063f6d0bf2f1461019f57610086565b80633894d0b31461008b578063409d25fd146100ca57806370e7733e1461010757806377c3ef3d1461011157610086565b3661008657005b600080fd5b34801561009757600080fd5b506100b260048036038101906100ad9190610bd4565b6101ca565b6040516100c193929190610cb9565b60405180910390f35b3480156100d657600080fd5b506100f160048036038101906100ec9190610d23565b61029c565b6040516100fe9190610d50565b60405180910390f35b61010f6102db565b005b34801561011d57600080fd5b506101266104e9565b6040516101339190610d6b565b60405180910390f35b61015660048036038101906101519190610ebb565b610508565b005b34801561016457600080fd5b5061017f600480360381019061017a9190610bd4565b6107be565b60405161018c9190610fcf565b60405180910390f35b61019d6109a1565b005b3480156101ab57600080fd5b506101b4610b23565b6040516101c19190610d6b565b60405180910390f35b60006020528060005260406000206000915090508060000180546101ed90611020565b80601f016020809104026020016040519081016040528092919081815260200182805461021990611020565b80156102665780601f1061023b57610100808354040283529160200191610266565b820191906000526020600020905b81548152906001019060200180831161024957829003601f168201915b5050505050908060010160009054906101000a900473ffffffffffffffffffffffffffffffffffffffff16908060020154905083565b600181815481106102ac57600080fd5b906000526020600020016000915054906101000a900473ffffffffffffffffffffffffffffffffffffffff1681565b60013410156102e957600080fd5b60003073ffffffffffffffffffffffffffffffffffffffff166108fc349081150290604051600060405180830381858888f19350505050158015610331573d6000803e3d6000fd5b50600034905060005b6001808054905061034b9190611080565b811161041b573373ffffffffffffffffffffffffffffffffffffffff166001828154811061037c5761037b6110b4565b5b9060005260206000200160009054906101000a900473ffffffffffffffffffffffffffffffffffffffff1673ffffffffffffffffffffffffffffffffffffffff160361040857600181815481106103d6576103d56110b4565b5b9060005260206000200160009054906101000a900473ffffffffffffffffffffffffffffffffffffffff16925061041b565b8080610413906110e3565b91505061033a565b50806000808473ffffffffffffffffffffffffffffffffffffffff1673ffffffffffffffffffffffffffffffffffffffff16815260200190815260200160002060020154610469919061112b565b6000808473ffffffffffffffffffffffffffffffffffffffff1673ffffffffffffffffffffffffffffffffffffffff168152602001908152602001600020600201819055507f844c2087bb7f3ef3b5cdbad919f68fb5be2647a6c9645593c60c0456e93dce2e826040516104dd91906111d1565b60405180910390a15050565b60003373ffffffffffffffffffffffffffffffffffffffff1631905090565b3373ffffffffffffffffffffffffffffffffffffffff166000803373ffffffffffffffffffffffffffffffffffffffff1673ffffffffffffffffffffffffffffffffffffffff16815260200190815260200160002060010160009054906101000a900473ffffffffffffffffffffffffffffffffffffffff1673ffffffffffffffffffffffffffffffffffffffff16036105a157600080fd5b600134146105ae57600080fd5b3073ffffffffffffffffffffffffffffffffffffffff166108fc349081150290604051600060405180830381858888f193505050501580156105f4573d6000803e3d6000fd5b50600034905060405180606001604052808381526020018473ffffffffffffffffffffffffffffffffffffffff168152602001826000808773ffffffffffffffffffffffffffffffffffffffff1673ffffffffffffffffffffffffffffffffffffffff16815260200190815260200160002060020154610674919061112b565b8152506000808573ffffffffffffffffffffffffffffffffffffffff1673ffffffffffffffffffffffffffffffffffffffff16815260200190815260200160002060008201518160000190816106ca91906113ab565b5060208201518160010160006101000a81548173ffffffffffffffffffffffffffffffffffffffff021916908373ffffffffffffffffffffffffffffffffffffffff160217905550604082015181600201559050506001839080600181540180825580915050600190039060005260206000200160009091909190916101000a81548173ffffffffffffffffffffffffffffffffffffffff021916908373ffffffffffffffffffffffffffffffffffffffff1602179055507f844c2087bb7f3ef3b5cdbad919f68fb5be2647a6c9645593c60c0456e93dce2e836040516107b191906114ef565b60405180910390a1505050565b6107c6610b2b565b8173ffffffffffffffffffffffffffffffffffffffff166000808473ffffffffffffffffffffffffffffffffffffffff1673ffffffffffffffffffffffffffffffffffffffff16815260200190815260200160002060010160009054906101000a900473ffffffffffffffffffffffffffffffffffffffff1673ffffffffffffffffffffffffffffffffffffffff161461085f57600080fd5b6000808373ffffffffffffffffffffffffffffffffffffffff1673ffffffffffffffffffffffffffffffffffffffff1681526020019081526020016000206040518060600160405290816000820180546108b890611020565b80601f01602080910402602001604051908101604052809291908181526020018280546108e490611020565b80156109315780601f1061090657610100808354040283529160200191610931565b820191906000526020600020905b81548152906001019060200180831161091457829003601f168201915b505050505081526020016001820160009054906101000a900473ffffffffffffffffffffffffffffffffffffffff1673ffffffffffffffffffffffffffffffffffffffff1673ffffffffffffffffffffffffffffffffffffffff1681526020016002820154815250509050919050565b600080600090505b600180805490506109ba9190611080565b8111610a8a573373ffffffffffffffffffffffffffffffffffffffff16600182815481106109eb576109ea6110b4565b5b9060005260206000200160009054906101000a900473ffffffffffffffffffffffffffffffffffffffff1673ffffffffffffffffffffffffffffffffffffffff1603610a775760018181548110610a4557610a446110b4565b5b9060005260206000200160009054906101000a900473ffffffffffffffffffffffffffffffffffffffff169150610a8a565b8080610a82906110e3565b9150506109a9565b506000808273ffffffffffffffffffffffffffffffffffffffff1673ffffffffffffffffffffffffffffffffffffffff16815260200190815260200160002060020154341115610ad957600080fd5b8073ffffffffffffffffffffffffffffffffffffffff166108fc349081150290604051600060405180830381858888f19350505050158015610b1f573d6000803e3d6000fd5b5050565b600047905090565b604051806060016040528060608152602001600073ffffffffffffffffffffffffffffffffffffffff168152602001600081525090565b6000604051905090565b600080fd5b600080fd5b600073ffffffffffffffffffffffffffffffffffffffff82169050919050565b6000610ba182610b76565b9050919050565b610bb181610b96565b8114610bbc57600080fd5b50565b600081359050610bce81610ba8565b92915050565b600060208284031215610bea57610be9610b6c565b5b6000610bf884828501610bbf565b91505092915050565b600081519050919050565b600082825260208201905092915050565b60005b83811015610c3b578082015181840152602081019050610c20565b60008484015250505050565b6000601f19601f8301169050919050565b6000610c6382610c01565b610c6d8185610c0c565b9350610c7d818560208601610c1d565b610c8681610c47565b840191505092915050565b610c9a81610b96565b82525050565b6000819050919050565b610cb381610ca0565b82525050565b60006060820190508181036000830152610cd38186610c58565b9050610ce26020830185610c91565b610cef6040830184610caa565b949350505050565b610d0081610ca0565b8114610d0b57600080fd5b50565b600081359050610d1d81610cf7565b92915050565b600060208284031215610d3957610d38610b6c565b5b6000610d4784828501610d0e565b91505092915050565b6000602082019050610d656000830184610c91565b92915050565b6000602082019050610d806000830184610caa565b92915050565b600080fd5b600080fd5b7f4e487b7100000000000000000000000000000000000000000000000000000000600052604160045260246000fd5b610dc882610c47565b810181811067ffffffffffffffff82111715610de757610de6610d90565b5b80604052505050565b6000610dfa610b62565b9050610e068282610dbf565b919050565b600067ffffffffffffffff821115610e2657610e25610d90565b5b610e2f82610c47565b9050602081019050919050565b82818337600083830152505050565b6000610e5e610e5984610e0b565b610df0565b905082815260208101848484011115610e7a57610e79610d8b565b5b610e85848285610e3c565b509392505050565b600082601f830112610ea257610ea1610d86565b5b8135610eb2848260208601610e4b565b91505092915050565b60008060408385031215610ed257610ed1610b6c565b5b6000610ee085828601610bbf565b925050602083013567ffffffffffffffff811115610f0157610f00610b71565b5b610f0d85828601610e8d565b9150509250929050565b600082825260208201905092915050565b6000610f3382610c01565b610f3d8185610f17565b9350610f4d818560208601610c1d565b610f5681610c47565b840191505092915050565b610f6a81610b96565b82525050565b610f7981610ca0565b82525050565b60006060830160008301518482036000860152610f9c8282610f28565b9150506020830151610fb16020860182610f61565b506040830151610fc46040860182610f70565b508091505092915050565b60006020820190508181036000830152610fe98184610f7f565b905092915050565b7f4e487b7100000000000000000000000000000000000000000000000000000000600052602260045260246000fd5b6000600282049050600182168061103857607f821691505b60208210810361104b5761104a610ff1565b5b50919050565b7f4e487b7100000000000000000000000000000000000000000000000000000000600052601160045260246000fd5b600061108b82610ca0565b915061109683610ca0565b92508282039050818111156110ae576110ad611051565b5b92915050565b7f4e487b7100000000000000000000000000000000000000000000000000000000600052603260045260246000fd5b60006110ee82610ca0565b91507fffffffffffffffffffffffffffffffffffffffffffffffffffffffffffffffff82036111205761111f611051565b5b600182019050919050565b600061113682610ca0565b915061114183610ca0565b925082820190508082111561115957611158611051565b5b92915050565b7f416d6f757420686173206265656e20637265646974656420737563636573736660008201527f756c6c792e2e2e00000000000000000000000000000000000000000000000000602082015250565b60006111bb602783610c0c565b91506111c68261115f565b604082019050919050565b60006040820190506111e66000830184610c91565b81810360208301526111f7816111ae565b905092915050565b60008190508160005260206000209050919050565b60006020601f8301049050919050565b600082821b905092915050565b6000600883026112617fffffffffffffffffffffffffffffffffffffffffffffffffffffffffffffffff82611224565b61126b8683611224565b95508019841693508086168417925050509392505050565b6000819050919050565b60006112a86112a361129e84610ca0565b611283565b610ca0565b9050919050565b6000819050919050565b6112c28361128d565b6112d66112ce826112af565b848454611231565b825550505050565b600090565b6112eb6112de565b6112f68184846112b9565b505050565b5b8181101561131a5761130f6000826112e3565b6001810190506112fc565b5050565b601f82111561135f57611330816111ff565b61133984611214565b81016020851015611348578190505b61135c61135485611214565b8301826112fb565b50505b505050565b600082821c905092915050565b600061138260001984600802611364565b1980831691505092915050565b600061139b8383611371565b9150826002028217905092915050565b6113b482610c01565b67ffffffffffffffff8111156113cd576113cc610d90565b5b6113d78254611020565b6113e282828561131e565b600060209050601f8311600181146114155760008415611403578287015190505b61140d858261138f565b865550611475565b601f198416611423866111ff565b60005b8281101561144b57848901518255600182019150602085019450602081019050611426565b868310156114685784890151611464601f891682611371565b8355505b6001600288020188555050505b505050505050565b7f41636f756e7420486173204265656e204372656174656420537563636573736660008201527f756c6c792e2e2e00000000000000000000000000000000000000000000000000602082015250565b60006114d9602783610c0c565b91506114e48261147d565b604082019050919050565b60006040820190506115046000830184610c91565b8181036020830152611515816114cc565b90509291505056fea2646970667358221220be03d8a137cfd2bfc0cf8001be0d6cc61c3d89b6a1eb5505d9286f89346aac2364736f6c63430008110033",
  "linkReferences": {},
  "deployedLinkReferences": {}
}