{
  "_format": "hh-sol-artifact-1",
  "contractName": "CryptoWallet",
  "sourceName": "contracts/CryptoWallet.sol",
  "abi": [
    {
      "inputs": [],
      "stateMutability": "nonpayable",
      "type": "constructor"
    },
    {
      "anonymous": false,
      "inputs": [
        {
          "indexed": false,
          "internalType": "address",
          "name": "useraddress",
          "type": "address"
        },
        {
          "indexed": false,
          "internalType": "string",
          "name": "message",
          "type": "string"
        }
      ],
      "name": "AlertMsg",
      "type": "event"
    },
    {
      "inputs": [],
      "name": "AccountBalance",
      "outputs": [
        {
          "internalType": "uint256",
          "name": "",
          "type": "uint256"
        }
      ],
      "stateMutability": "view",
      "type": "function"
    },
    {
      "inputs": [
        {
          "internalType": "address",
          "name": "",
          "type": "address"
        }
      ],
      "name": "Customer",
      "outputs": [
        {
          "internalType": "string",
          "name": "name",
          "type": "string"
        },
        {
          "internalType": "address",
          "name": "useraddress",
          "type": "address"
        },
        {
          "internalType": "uint256",
          "name": "saving_amount",
          "type": "uint256"
        }
      ],
      "stateMutability": "view",
      "type": "function"
    },
    {
      "inputs": [],
      "name": "DepositeAmount",
      "outputs": [],
      "stateMutability": "payable",
      "type": "function"
    },
    {
      "inputs": [
        {
          "internalType": "address",
          "name": "user",
          "type": "address"
        }
      ],
      "name": "GetAccount",
      "outputs": [
        {
          "components": [
            {
              "internalType": "string",
              "name": "name",
              "type": "string"
            },
            {
              "internalType": "address",
              "name": "useraddress",
              "type": "address"
            },
            {
              "internalType": "uint256",
              "name": "saving_amount",
              "type": "uint256"
            }
          ],
          "internalType": "struct User.UserDeatails",
          "name": "acc",
          "type": "tuple"
        }
      ],
      "stateMutability": "view",
      "type": "function"
    },
    {
      "inputs": [],
      "name": "GetContractBalance",
      "outputs": [
        {
          "internalType": "uint256",
          "name": "",
          "type": "uint256"
        }
      ],
      "stateMutability": "view",
      "type": "function"
    },
    {
      "inputs": [
        {
          "internalType": "address",
          "name": "user",
          "type": "address"
        },
        {
          "internalType": "string",
          "name": "name_",
          "type": "string"
        }
      ],
      "name": "OpeningAccount",
      "outputs": [],
      "stateMutability": "payable",
      "type": "function"
    },
    {
      "inputs": [
        {
          "internalType": "uint256",
          "name": "amount",
          "type": "uint256"
        }
      ],
      "name": "WithDraw",
      "outputs": [],
      "stateMutability": "payable",
      "type": "function"
    },
    {
      "inputs": [],
      "name": "owner",
      "outputs": [
        {
          "internalType": "address",
          "name": "",
          "type": "address"
        }
      ],
      "stateMutability": "view",
      "type": "function"
    },
    {
      "inputs": [
        {
          "internalType": "uint256",
          "name": "",
          "type": "uint256"
        }
      ],
      "name": "userarray",
      "outputs": [
        {
          "internalType": "address",
          "name": "",
          "type": "address"
        }
      ],
      "stateMutability": "view",
      "type": "function"
    },
    {
      "stateMutability": "payable",
      "type": "receive"
    }
  ],
  "bytecode": "0x608060405234801561001057600080fd5b5033600260006101000a81548173ffffffffffffffffffffffffffffffffffffffff021916908373ffffffffffffffffffffffffffffffffffffffff160217905550611949806100616000396000f3fe60806040526004361061008a5760003560e01c80638da5cb5b116100595780638da5cb5b14610147578063b27c51d514610172578063cbe159bb1461018e578063d3674148146101aa578063f6d0bf2f146101e757610091565b80633894d0b314610096578063409d25fd146100d557806370e7733e1461011257806377c3ef3d1461011c57610091565b3661009157005b600080fd5b3480156100a257600080fd5b506100bd60048036038101906100b89190610dea565b610212565b6040516100cc93929190610ecf565b60405180910390f35b3480156100e157600080fd5b506100fc60048036038101906100f79190610f39565b6102e4565b6040516101099190610f66565b60405180910390f35b61011a610323565b005b34801561012857600080fd5b50610131610531565b60405161013e9190610f81565b60405180910390f35b34801561015357600080fd5b5061015c610550565b6040516101699190610f66565b60405180910390f35b61018c600480360381019061018791906110d1565b610576565b005b6101a860048036038101906101a39190610f39565b610863565b005b3480156101b657600080fd5b506101d160048036038101906101cc9190610dea565b610b56565b6040516101de91906111e5565b60405180910390f35b3480156101f357600080fd5b506101fc610d39565b6040516102099190610f81565b60405180910390f35b600060205280600052604060002060009150905080600001805461023590611236565b80601f016020809104026020016040519081016040528092919081815260200182805461026190611236565b80156102ae5780601f10610283576101008083540402835291602001916102ae565b820191906000526020600020905b81548152906001019060200180831161029157829003601f168201915b5050505050908060010160009054906101000a900473ffffffffffffffffffffffffffffffffffffffff16908060020154905083565b600181815481106102f457600080fd5b906000526020600020016000915054906101000a900473ffffffffffffffffffffffffffffffffffffffff1681565b600a34101561033157600080fd5b60003073ffffffffffffffffffffffffffffffffffffffff166108fc349081150290604051600060405180830381858888f19350505050158015610379573d6000803e3d6000fd5b50600034905060005b600180805490506103939190611296565b8111610463573373ffffffffffffffffffffffffffffffffffffffff16600182815481106103c4576103c36112ca565b5b9060005260206000200160009054906101000a900473ffffffffffffffffffffffffffffffffffffffff1673ffffffffffffffffffffffffffffffffffffffff1603610450576001818154811061041e5761041d6112ca565b5b9060005260206000200160009054906101000a900473ffffffffffffffffffffffffffffffffffffffff169250610463565b808061045b906112f9565b915050610382565b50806000808473ffffffffffffffffffffffffffffffffffffffff1673ffffffffffffffffffffffffffffffffffffffff168152602001908152602001600020600201546104b19190611341565b6000808473ffffffffffffffffffffffffffffffffffffffff1673ffffffffffffffffffffffffffffffffffffffff168152602001908152602001600020600201819055507f844c2087bb7f3ef3b5cdbad919f68fb5be2647a6c9645593c60c0456e93dce2e8260405161052591906113e7565b60405180910390a15050565b60003373ffffffffffffffffffffffffffffffffffffffff1631905090565b600260009054906101000a900473ffffffffffffffffffffffffffffffffffffffff1681565b3373ffffffffffffffffffffffffffffffffffffffff166000803373ffffffffffffffffffffffffffffffffffffffff1673ffffffffffffffffffffffffffffffffffffffff16815260200190815260200160002060010160009054906101000a900473ffffffffffffffffffffffffffffffffffffffff1673ffffffffffffffffffffffffffffffffffffffff160361060f57600080fd5b600a341461061c57600080fd5b3073ffffffffffffffffffffffffffffffffffffffff166108fc349081150290604051600060405180830381858888f19350505050158015610662573d6000803e3d6000fd5b507f844c2087bb7f3ef3b5cdbad919f68fb5be2647a6c9645593c60c0456e93dce2e306040516106929190611487565b60405180910390a1600034905060405180606001604052808381526020018473ffffffffffffffffffffffffffffffffffffffff168152602001826000808773ffffffffffffffffffffffffffffffffffffffff1673ffffffffffffffffffffffffffffffffffffffff168152602001908152602001600020600201546107199190611341565b8152506000808573ffffffffffffffffffffffffffffffffffffffff1673ffffffffffffffffffffffffffffffffffffffff168152602001908152602001600020600082015181600001908161076f9190611661565b5060208201518160010160006101000a81548173ffffffffffffffffffffffffffffffffffffffff021916908373ffffffffffffffffffffffffffffffffffffffff160217905550604082015181600201559050506001839080600181540180825580915050600190039060005260206000200160009091909190916101000a81548173ffffffffffffffffffffffffffffffffffffffff021916908373ffffffffffffffffffffffffffffffffffffffff1602179055507f844c2087bb7f3ef3b5cdbad919f68fb5be2647a6c9645593c60c0456e93dce2e8360405161085691906117a5565b60405180910390a1505050565b600080600090505b6001808054905061087c9190611296565b811161094c573373ffffffffffffffffffffffffffffffffffffffff16600182815481106108ad576108ac6112ca565b5b9060005260206000200160009054906101000a900473ffffffffffffffffffffffffffffffffffffffff1673ffffffffffffffffffffffffffffffffffffffff16036109395760018181548110610907576109066112ca565b5b9060005260206000200160009054906101000a900473ffffffffffffffffffffffffffffffffffffffff16915061094c565b8080610944906112f9565b91505061086b565b506000808273ffffffffffffffffffffffffffffffffffffffff1673ffffffffffffffffffffffffffffffffffffffff1681526020019081526020016000206002015482111561099b57600080fd5b816000808373ffffffffffffffffffffffffffffffffffffffff1673ffffffffffffffffffffffffffffffffffffffff168152602001908152602001600020600201546109e89190611296565b6000808373ffffffffffffffffffffffffffffffffffffffff1673ffffffffffffffffffffffffffffffffffffffff1681526020019081526020016000206002018190555047821115610a3a57600080fd5b60008247610a489190611296565b90503073ffffffffffffffffffffffffffffffffffffffff166108fc829081150290604051600060405180830381858888f19350505050158015610a90573d6000803e3d6000fd5b507f844c2087bb7f3ef3b5cdbad919f68fb5be2647a6c9645593c60c0456e93dce2e30604051610ac09190611845565b60405180910390a18173ffffffffffffffffffffffffffffffffffffffff166108fc8247610aee9190611296565b9081150290604051600060405180830381858888f19350505050158015610b19573d6000803e3d6000fd5b507f844c2087bb7f3ef3b5cdbad919f68fb5be2647a6c9645593c60c0456e93dce2e82604051610b4991906118e5565b60405180910390a1505050565b610b5e610d41565b8173ffffffffffffffffffffffffffffffffffffffff166000808473ffffffffffffffffffffffffffffffffffffffff1673ffffffffffffffffffffffffffffffffffffffff16815260200190815260200160002060010160009054906101000a900473ffffffffffffffffffffffffffffffffffffffff1673ffffffffffffffffffffffffffffffffffffffff1614610bf757600080fd5b6000808373ffffffffffffffffffffffffffffffffffffffff1673ffffffffffffffffffffffffffffffffffffffff168152602001908152602001600020604051806060016040529081600082018054610c5090611236565b80601f0160208091040260200160405190810160405280929190818152602001828054610c7c90611236565b8015610cc95780601f10610c9e57610100808354040283529160200191610cc9565b820191906000526020600020905b815481529060010190602001808311610cac57829003601f168201915b505050505081526020016001820160009054906101000a900473ffffffffffffffffffffffffffffffffffffffff1673ffffffffffffffffffffffffffffffffffffffff1673ffffffffffffffffffffffffffffffffffffffff1681526020016002820154815250509050919050565b600047905090565b604051806060016040528060608152602001600073ffffffffffffffffffffffffffffffffffffffff168152602001600081525090565b6000604051905090565b600080fd5b600080fd5b600073ffffffffffffffffffffffffffffffffffffffff82169050919050565b6000610db782610d8c565b9050919050565b610dc781610dac565b8114610dd257600080fd5b50565b600081359050610de481610dbe565b92915050565b600060208284031215610e0057610dff610d82565b5b6000610e0e84828501610dd5565b91505092915050565b600081519050919050565b600082825260208201905092915050565b60005b83811015610e51578082015181840152602081019050610e36565b60008484015250505050565b6000601f19601f8301169050919050565b6000610e7982610e17565b610e838185610e22565b9350610e93818560208601610e33565b610e9c81610e5d565b840191505092915050565b610eb081610dac565b82525050565b6000819050919050565b610ec981610eb6565b82525050565b60006060820190508181036000830152610ee98186610e6e565b9050610ef86020830185610ea7565b610f056040830184610ec0565b949350505050565b610f1681610eb6565b8114610f2157600080fd5b50565b600081359050610f3381610f0d565b92915050565b600060208284031215610f4f57610f4e610d82565b5b6000610f5d84828501610f24565b91505092915050565b6000602082019050610f7b6000830184610ea7565b92915050565b6000602082019050610f966000830184610ec0565b92915050565b600080fd5b600080fd5b7f4e487b7100000000000000000000000000000000000000000000000000000000600052604160045260246000fd5b610fde82610e5d565b810181811067ffffffffffffffff82111715610ffd57610ffc610fa6565b5b80604052505050565b6000611010610d78565b905061101c8282610fd5565b919050565b600067ffffffffffffffff82111561103c5761103b610fa6565b5b61104582610e5d565b9050602081019050919050565b82818337600083830152505050565b600061107461106f84611021565b611006565b9050828152602081018484840111156110905761108f610fa1565b5b61109b848285611052565b509392505050565b600082601f8301126110b8576110b7610f9c565b5b81356110c8848260208601611061565b91505092915050565b600080604083850312156110e8576110e7610d82565b5b60006110f685828601610dd5565b925050602083013567ffffffffffffffff81111561111757611116610d87565b5b611123858286016110a3565b9150509250929050565b600082825260208201905092915050565b600061114982610e17565b611153818561112d565b9350611163818560208601610e33565b61116c81610e5d565b840191505092915050565b61118081610dac565b82525050565b61118f81610eb6565b82525050565b600060608301600083015184820360008601526111b2828261113e565b91505060208301516111c76020860182611177565b5060408301516111da6040860182611186565b508091505092915050565b600060208201905081810360008301526111ff8184611195565b905092915050565b7f4e487b7100000000000000000000000000000000000000000000000000000000600052602260045260246000fd5b6000600282049050600182168061124e57607f821691505b60208210810361126157611260611207565b5b50919050565b7f4e487b7100000000000000000000000000000000000000000000000000000000600052601160045260246000fd5b60006112a182610eb6565b91506112ac83610eb6565b92508282039050818111156112c4576112c3611267565b5b92915050565b7f4e487b7100000000000000000000000000000000000000000000000000000000600052603260045260246000fd5b600061130482610eb6565b91507fffffffffffffffffffffffffffffffffffffffffffffffffffffffffffffffff820361133657611335611267565b5b600182019050919050565b600061134c82610eb6565b915061135783610eb6565b925082820190508082111561136f5761136e611267565b5b92915050565b7f416d6f757420686173206265656e20637265646974656420737563636573736660008201527f756c6c792e2e2e00000000000000000000000000000000000000000000000000602082015250565b60006113d1602783610e22565b91506113dc82611375565b604082019050919050565b60006040820190506113fc6000830184610ea7565b818103602083015261140d816113c4565b905092915050565b7f596f757220616d6f756e7420686173206265656e206465626974656420746f2060008201527f7468652062616e6b206163636f756e7400000000000000000000000000000000602082015250565b6000611471603083610e22565b915061147c82611415565b604082019050919050565b600060408201905061149c6000830184610ea7565b81810360208301526114ad81611464565b905092915050565b60008190508160005260206000209050919050565b60006020601f8301049050919050565b600082821b905092915050565b6000600883026115177fffffffffffffffffffffffffffffffffffffffffffffffffffffffffffffffff826114da565b61152186836114da565b95508019841693508086168417925050509392505050565b6000819050919050565b600061155e61155961155484610eb6565b611539565b610eb6565b9050919050565b6000819050919050565b61157883611543565b61158c61158482611565565b8484546114e7565b825550505050565b600090565b6115a1611594565b6115ac81848461156f565b505050565b5b818110156115d0576115c5600082611599565b6001810190506115b2565b5050565b601f821115611615576115e6816114b5565b6115ef846114ca565b810160208510156115fe578190505b61161261160a856114ca565b8301826115b1565b50505b505050565b600082821c905092915050565b60006116386000198460080261161a565b1980831691505092915050565b60006116518383611627565b9150826002028217905092915050565b61166a82610e17565b67ffffffffffffffff81111561168357611682610fa6565b5b61168d8254611236565b6116988282856115d4565b600060209050601f8311600181146116cb57600084156116b9578287015190505b6116c38582611645565b86555061172b565b601f1984166116d9866114b5565b60005b82811015611701578489015182556001820191506020850194506020810190506116dc565b8683101561171e578489015161171a601f891682611627565b8355505b6001600288020188555050505b505050505050565b7f41636f756e7420486173204265656e204372656174656420537563636573736660008201527f756c6c792e2e2e00000000000000000000000000000000000000000000000000602082015250565b600061178f602783610e22565b915061179a82611733565b604082019050919050565b60006040820190506117ba6000830184610ea7565b81810360208301526117cb81611782565b905092915050565b7f416d6f756e7420686173206265656e2064656475637465642066726f6d20746860008201527f6520436f6e74726163742e2e2e00000000000000000000000000000000000000602082015250565b600061182f602d83610e22565b915061183a826117d3565b604082019050919050565b600060408201905061185a6000830184610ea7565b818103602083015261186b81611822565b905092915050565b7f416d6f756e74206861732073756363657366756c6c79206265656e207769746860008201527f647261776c20746f20796f7572206163636f756e742e2e2e0000000000000000602082015250565b60006118cf603883610e22565b91506118da82611873565b604082019050919050565b60006040820190506118fa6000830184610ea7565b818103602083015261190b816118c2565b90509291505056fea264697066735822122090d318c7b937a56c741b1489ec5407a276025a72b6a371f5c2a44f900cfd548a64736f6c63430008110033",
  "linkReferences": {},
  "deployedLinkReferences": {}
}