{
  "_format": "hh-sol-artifact-1",
  "contractName": "WalletModifiers",
  "sourceName": "contracts/Modifiers.sol",
  "abi": [
    {
      "inputs": [
        {
          "internalType": "address",
          "name": "",
          "type": "address"
        }
      ],
      "name": "Customer",
      "outputs": [
        {
          "internalType": "string",
          "name": "name",
          "type": "string"
        },
        {
          "internalType": "address",
          "name": "useraddress",
          "type": "address"
        },
        {
          "internalType": "uint256",
          "name": "saving_amount",
          "type": "uint256"
        }
      ],
      "stateMutability": "view",
      "type": "function"
    },
    {
      "inputs": [
        {
          "internalType": "uint256",
          "name": "",
          "type": "uint256"
        }
      ],
      "name": "userarray",
      "outputs": [
        {
          "internalType": "address",
          "name": "",
          "type": "address"
        }
      ],
      "stateMutability": "view",
      "type": "function"
    }
  ],
  "bytecode": "0x608060405234801561001057600080fd5b5061043e806100206000396000f3fe608060405234801561001057600080fd5b50600436106100365760003560e01c80633894d0b31461003b578063409d25fd1461006d575b600080fd5b61005560048036038101906100509190610211565b61009d565b604051610064939291906102f6565b60405180910390f35b61008760048036038101906100829190610360565b61016f565b604051610094919061038d565b60405180910390f35b60006020528060005260406000206000915090508060000180546100c0906103d7565b80601f01602080910402602001604051908101604052809291908181526020018280546100ec906103d7565b80156101395780601f1061010e57610100808354040283529160200191610139565b820191906000526020600020905b81548152906001019060200180831161011c57829003601f168201915b5050505050908060010160009054906101000a900473ffffffffffffffffffffffffffffffffffffffff16908060020154905083565b6001818154811061017f57600080fd5b906000526020600020016000915054906101000a900473ffffffffffffffffffffffffffffffffffffffff1681565b600080fd5b600073ffffffffffffffffffffffffffffffffffffffff82169050919050565b60006101de826101b3565b9050919050565b6101ee816101d3565b81146101f957600080fd5b50565b60008135905061020b816101e5565b92915050565b600060208284031215610227576102266101ae565b5b6000610235848285016101fc565b91505092915050565b600081519050919050565b600082825260208201905092915050565b60005b8381101561027857808201518184015260208101905061025d565b60008484015250505050565b6000601f19601f8301169050919050565b60006102a08261023e565b6102aa8185610249565b93506102ba81856020860161025a565b6102c381610284565b840191505092915050565b6102d7816101d3565b82525050565b6000819050919050565b6102f0816102dd565b82525050565b600060608201905081810360008301526103108186610295565b905061031f60208301856102ce565b61032c60408301846102e7565b949350505050565b61033d816102dd565b811461034857600080fd5b50565b60008135905061035a81610334565b92915050565b600060208284031215610376576103756101ae565b5b60006103848482850161034b565b91505092915050565b60006020820190506103a260008301846102ce565b92915050565b7f4e487b7100000000000000000000000000000000000000000000000000000000600052602260045260246000fd5b600060028204905060018216806103ef57607f821691505b602082108103610402576104016103a8565b5b5091905056fea2646970667358221220d2bb69589464bfb53a2cdd2fba134f06411ce556b4ed7d9090762bb7be14089864736f6c63430008110033",
  "linkReferences": {},
  "deployedLinkReferences": {}
}